{
  "contractName": "MintManager",
  "abi": [
    {
      "inputs": [
        {
          "internalType": "address",
          "name": "_forwarder",
          "type": "address"
        },
        {
          "internalType": "address",
          "name": "_tokenFunction",
          "type": "address"
        }
      ],
      "stateMutability": "nonpayable",
      "type": "constructor"
    },
    {
      "anonymous": false,
      "inputs": [
        {
          "indexed": true,
          "internalType": "address",
          "name": "_token",
          "type": "address"
        },
        {
          "indexed": false,
          "internalType": "address",
          "name": "_referee",
          "type": "address"
        },
        {
          "indexed": true,
          "internalType": "address",
          "name": "_minter",
          "type": "address"
        },
        {
          "indexed": false,
          "internalType": "uint256",
          "name": "_valueMinted",
          "type": "uint256"
        }
      ],
      "name": "TokenMinted",
      "type": "event"
    },
    {
      "inputs": [
        {
          "internalType": "address",
          "name": "",
          "type": "address"
        }
      ],
      "name": "hasMinted",
      "outputs": [
        {
          "internalType": "bool",
          "name": "",
          "type": "bool"
        }
      ],
      "stateMutability": "view",
      "type": "function"
    },
    {
      "inputs": [
        {
          "internalType": "address",
          "name": "forwarder",
          "type": "address"
        }
      ],
      "name": "isTrustedForwarder",
      "outputs": [
        {
          "internalType": "bool",
          "name": "",
          "type": "bool"
        }
      ],
      "stateMutability": "view",
      "type": "function"
    },
    {
      "inputs": [
        {
          "internalType": "address",
          "name": "",
          "type": "address"
        }
      ],
      "name": "mintableTokens",
      "outputs": [
        {
          "internalType": "uint256",
          "name": "",
          "type": "uint256"
        }
      ],
      "stateMutability": "view",
      "type": "function"
    },
    {
      "inputs": [],
      "name": "owner",
      "outputs": [
        {
          "internalType": "address",
          "name": "",
          "type": "address"
        }
      ],
      "stateMutability": "view",
      "type": "function"
    },
    {
      "inputs": [],
      "name": "paymentManagerAddress",
      "outputs": [
        {
          "internalType": "address",
          "name": "",
          "type": "address"
        }
      ],
      "stateMutability": "view",
      "type": "function"
    },
    {
      "inputs": [],
      "name": "tokenFunction",
      "outputs": [
        {
          "internalType": "address",
          "name": "",
          "type": "address"
        }
      ],
      "stateMutability": "view",
      "type": "function"
    },
    {
      "inputs": [],
      "name": "trustedForwarder",
      "outputs": [
        {
          "internalType": "address",
          "name": "",
          "type": "address"
        }
      ],
      "stateMutability": "view",
      "type": "function"
    },
    {
      "inputs": [],
      "name": "versionRecipient",
      "outputs": [
        {
          "internalType": "string",
          "name": "",
          "type": "string"
        }
      ],
      "stateMutability": "view",
      "type": "function"
    },
    {
      "inputs": [],
      "name": "walletFactoryAddress",
      "outputs": [
        {
          "internalType": "address",
          "name": "",
          "type": "address"
        }
      ],
      "stateMutability": "view",
      "type": "function"
    },
    {
      "inputs": [
        {
          "internalType": "address",
          "name": "_walletFactoryAddress",
          "type": "address"
        }
      ],
      "name": "setWalletFactoryAddress",
      "outputs": [],
      "stateMutability": "nonpayable",
      "type": "function"
    },
    {
      "inputs": [
        {
          "internalType": "address",
          "name": "_tokenFunction",
          "type": "address"
        }
      ],
      "name": "setTokenFunction",
      "outputs": [],
      "stateMutability": "nonpayable",
      "type": "function"
    },
    {
      "inputs": [
        {
          "internalType": "address",
          "name": "_paymentManagerAddress",
          "type": "address"
        }
      ],
      "name": "setPaymentManagerAddress",
      "outputs": [],
      "stateMutability": "nonpayable",
      "type": "function"
    },
    {
      "inputs": [
        {
          "internalType": "address",
          "name": "_mintableToken",
          "type": "address"
        },
        {
          "internalType": "uint256",
          "name": "_mintValue",
          "type": "uint256"
        }
      ],
      "name": "setMintValue",
      "outputs": [],
      "stateMutability": "nonpayable",
      "type": "function"
    },
    {
      "inputs": [
        {
          "internalType": "address",
          "name": "_referee",
          "type": "address"
        },
        {
          "internalType": "address",
          "name": "_mintableToken",
          "type": "address"
        },
        {
          "internalType": "address",
          "name": "_supportedToken",
          "type": "address"
        }
      ],
      "name": "referralMint",
      "outputs": [],
      "stateMutability": "nonpayable",
      "type": "function"
    },
    {
      "inputs": [
        {
          "internalType": "address",
          "name": "_mintableToken",
          "type": "address"
        },
        {
          "internalType": "address",
          "name": "_supportedToken",
          "type": "address"
        }
      ],
      "name": "mint",
      "outputs": [],
      "stateMutability": "nonpayable",
      "type": "function"
    }
  ],
  "bytecode": "0x60806040526040518060400160405280600581526020017f322e302e3000000000000000000000000000000000000000000000000000000081525060019080519060200190620000519291906200016a565b503480156200005f57600080fd5b50604051620022a5380380620022a5833981810160405260408110156200008557600080fd5b81019080805190602001909291908051906020019092919050505033600460006101000a81548173ffffffffffffffffffffffffffffffffffffffff021916908373ffffffffffffffffffffffffffffffffffffffff160217905550816000806101000a81548173ffffffffffffffffffffffffffffffffffffffff021916908373ffffffffffffffffffffffffffffffffffffffff16021790555080600760006101000a81548173ffffffffffffffffffffffffffffffffffffffff021916908373ffffffffffffffffffffffffffffffffffffffff160217905550505062000219565b828054600181600116156101000203166002900490600052602060002090601f016020900481019282601f10620001ad57805160ff1916838001178555620001de565b82800160010185558215620001de579182015b82811115620001dd578251825591602001919060010190620001c0565b5b509050620001ed9190620001f1565b5090565b6200021691905b8082111562000212576000816000905550600101620001f8565b5090565b90565b61207c80620002296000396000f3fe608060405234801561001057600080fd5b50600436106100f55760003560e01c80637da0a87711610097578063e13ceb7511610066578063e13ceb751461048b578063e9a828a4146104cf578063ee1fe2ad14610553578063f44243cc146105b7576100f5565b80637da0a8771461036f5780638a6fd685146103b95780638da5cb5b146103fd578063d1da6f6314610447576100f5565b806345711d48116100d357806345711d48146101ee578063486ff0cd14610246578063572b6c05146102c957806361784b9114610325576100f5565b80631a6c49f5146100fa578063343372ea1461014857806338e21cce14610192575b600080fd5b6101466004803603604081101561011057600080fd5b81019080803573ffffffffffffffffffffffffffffffffffffffff16906020019092919080359060200190929190505050610601565b005b61015061070c565b604051808273ffffffffffffffffffffffffffffffffffffffff1673ffffffffffffffffffffffffffffffffffffffff16815260200191505060405180910390f35b6101d4600480360360208110156101a857600080fd5b81019080803573ffffffffffffffffffffffffffffffffffffffff169060200190929190505050610732565b604051808215151515815260200191505060405180910390f35b6102306004803603602081101561020457600080fd5b81019080803573ffffffffffffffffffffffffffffffffffffffff169060200190929190505050610752565b6040518082815260200191505060405180910390f35b61024e61076a565b6040518080602001828103825283818151815260200191508051906020019080838360005b8381101561028e578082015181840152602081019050610273565b50505050905090810190601f1680156102bb5780820380516001836020036101000a031916815260200191505b509250505060405180910390f35b61030b600480360360208110156102df57600080fd5b81019080803573ffffffffffffffffffffffffffffffffffffffff169060200190929190505050610808565b604051808215151515815260200191505060405180910390f35b61032d610861565b604051808273ffffffffffffffffffffffffffffffffffffffff1673ffffffffffffffffffffffffffffffffffffffff16815260200191505060405180910390f35b610377610887565b604051808273ffffffffffffffffffffffffffffffffffffffff1673ffffffffffffffffffffffffffffffffffffffff16815260200191505060405180910390f35b6103fb600480360360208110156103cf57600080fd5b81019080803573ffffffffffffffffffffffffffffffffffffffff1690602001909291905050506108ac565b005b6104056109b3565b604051808273ffffffffffffffffffffffffffffffffffffffff1673ffffffffffffffffffffffffffffffffffffffff16815260200191505060405180910390f35b6104896004803603602081101561045d57600080fd5b81019080803573ffffffffffffffffffffffffffffffffffffffff1690602001909291905050506109d9565b005b6104cd600480360360208110156104a157600080fd5b81019080803573ffffffffffffffffffffffffffffffffffffffff169060200190929190505050610ae0565b005b610551600480360360608110156104e557600080fd5b81019080803573ffffffffffffffffffffffffffffffffffffffff169060200190929190803573ffffffffffffffffffffffffffffffffffffffff169060200190929190803573ffffffffffffffffffffffffffffffffffffffff169060200190929190505050610be7565b005b6105b56004803603604081101561056957600080fd5b81019080803573ffffffffffffffffffffffffffffffffffffffff169060200190929190803573ffffffffffffffffffffffffffffffffffffffff1690602001909291905050506117f0565b005b6105bf611f85565b604051808273ffffffffffffffffffffffffffffffffffffffff1673ffffffffffffffffffffffffffffffffffffffff16815260200191505060405180910390f35b3373ffffffffffffffffffffffffffffffffffffffff16600460009054906101000a900473ffffffffffffffffffffffffffffffffffffffff1673ffffffffffffffffffffffffffffffffffffffff16146106c4576040517f08c379a00000000000000000000000000000000000000000000000000000000081526004018080602001828103825260198152602001807f3a2063616c6c6572206973206e6f7420746865206f776e65720000000000000081525060200191505060405180910390fd5b80600260008473ffffffffffffffffffffffffffffffffffffffff1673ffffffffffffffffffffffffffffffffffffffff168152602001908152602001600020819055505050565b600560009054906101000a900473ffffffffffffffffffffffffffffffffffffffff1681565b60036020528060005260406000206000915054906101000a900460ff1681565b60026020528060005260406000206000915090505481565b60018054600181600116156101000203166002900480601f0160208091040260200160405190810160405280929190818152602001828054600181600116156101000203166002900480156108005780601f106107d557610100808354040283529160200191610800565b820191906000526020600020905b8154815290600101906020018083116107e357829003601f168201915b505050505081565b60008060009054906101000a900473ffffffffffffffffffffffffffffffffffffffff1673ffffffffffffffffffffffffffffffffffffffff168273ffffffffffffffffffffffffffffffffffffffff16149050919050565b600660009054906101000a900473ffffffffffffffffffffffffffffffffffffffff1681565b6000809054906101000a900473ffffffffffffffffffffffffffffffffffffffff1681565b3373ffffffffffffffffffffffffffffffffffffffff16600460009054906101000a900473ffffffffffffffffffffffffffffffffffffffff1673ffffffffffffffffffffffffffffffffffffffff161461096f576040517f08c379a00000000000000000000000000000000000000000000000000000000081526004018080602001828103825260198152602001807f3a2063616c6c6572206973206e6f7420746865206f776e65720000000000000081525060200191505060405180910390fd5b80600660006101000a81548173ffffffffffffffffffffffffffffffffffffffff021916908373ffffffffffffffffffffffffffffffffffffffff16021790555050565b600460009054906101000a900473ffffffffffffffffffffffffffffffffffffffff1681565b3373ffffffffffffffffffffffffffffffffffffffff16600460009054906101000a900473ffffffffffffffffffffffffffffffffffffffff1673ffffffffffffffffffffffffffffffffffffffff1614610a9c576040517f08c379a00000000000000000000000000000000000000000000000000000000081526004018080602001828103825260198152602001807f3a2063616c6c6572206973206e6f7420746865206f776e65720000000000000081525060200191505060405180910390fd5b80600560006101000a81548173ffffffffffffffffffffffffffffffffffffffff021916908373ffffffffffffffffffffffffffffffffffffffff16021790555050565b3373ffffffffffffffffffffffffffffffffffffffff16600460009054906101000a900473ffffffffffffffffffffffffffffffffffffffff1673ffffffffffffffffffffffffffffffffffffffff1614610ba3576040517f08c379a00000000000000000000000000000000000000000000000000000000081526004018080602001828103825260198152602001807f3a2063616c6c6572206973206e6f7420746865206f776e65720000000000000081525060200191505060405180910390fd5b80600760006101000a81548173ffffffffffffffffffffffffffffffffffffffff021916908373ffffffffffffffffffffffffffffffffffffffff16021790555050565b6000600260008473ffffffffffffffffffffffffffffffffffffffff1673ffffffffffffffffffffffffffffffffffffffff16815260200190815260200160002054905060008111610ca1576040517f08c379a00000000000000000000000000000000000000000000000000000000081526004018080602001828103825260158152602001807f546f6b656e206973206e6f74206d696e7461626c65000000000000000000000081525060200191505060405180910390fd5b600073ffffffffffffffffffffffffffffffffffffffff168473ffffffffffffffffffffffffffffffffffffffff161415610d44576040517f08c379a000000000000000000000000000000000000000000000000000000000815260040180806020018281038252600f8152602001807f496e76616c69642072656665726565000000000000000000000000000000000081525060200191505060405180910390fd5b600073ffffffffffffffffffffffffffffffffffffffff168273ffffffffffffffffffffffffffffffffffffffff161415610de7576040517f08c379a00000000000000000000000000000000000000000000000000000000081526004018080602001828103825260168152602001807f496e76616c696420737570706f72746564546f6b656e0000000000000000000081525060200191505060405180910390fd5b6000610df1611fab565b9050600360008673ffffffffffffffffffffffffffffffffffffffff1673ffffffffffffffffffffffffffffffffffffffff16815260200190815260200160002060009054906101000a900460ff16610eb2576040517f08c379a00000000000000000000000000000000000000000000000000000000081526004018080602001828103825260168152602001807f5265666572656520686173206e6f74206d696e7465640000000000000000000081525060200191505060405180910390fd5b600360008273ffffffffffffffffffffffffffffffffffffffff1673ffffffffffffffffffffffffffffffffffffffff16815260200190815260200160002060009054906101000a900460ff1615610f72576040517f08c379a00000000000000000000000000000000000000000000000000000000081526004018080602001828103825260198152602001807f4d696e7465722068617320616c7265616479206d696e7465640000000000000081525060200191505060405180910390fd5b6001600360008373ffffffffffffffffffffffffffffffffffffffff1673ffffffffffffffffffffffffffffffffffffffff16815260200190815260200160002060006101000a81548160ff0219169083151502179055506001600360008773ffffffffffffffffffffffffffffffffffffffff1673ffffffffffffffffffffffffffffffffffffffff16815260200190815260200160002060006101000a81548160ff0219169083151502179055506000600560009054906101000a900473ffffffffffffffffffffffffffffffffffffffff1673ffffffffffffffffffffffffffffffffffffffff1663168e868f8760006040518363ffffffff1660e01b8152600401808373ffffffffffffffffffffffffffffffffffffffff1673ffffffffffffffffffffffffffffffffffffffff1681526020018281526020019250505060206040518083038186803b1580156110cc57600080fd5b505afa1580156110e0573d6000803e3d6000fd5b505050506040513d60208110156110f657600080fd5b810190808051906020019092919050505090506000600560009054906101000a900473ffffffffffffffffffffffffffffffffffffffff1673ffffffffffffffffffffffffffffffffffffffff1663168e868f8460006040518363ffffffff1660e01b8152600401808373ffffffffffffffffffffffffffffffffffffffff1673ffffffffffffffffffffffffffffffffffffffff1681526020018281526020019250505060206040518083038186803b1580156111b357600080fd5b505afa1580156111c7573d6000803e3d6000fd5b505050506040513d60208110156111dd57600080fd5b8101908080519060200190929190505050905060006003600660009054906101000a900473ffffffffffffffffffffffffffffffffffffffff1673ffffffffffffffffffffffffffffffffffffffff16632509e05988600760009054906101000a900473ffffffffffffffffffffffffffffffffffffffff166040518363ffffffff1660e01b8152600401808373ffffffffffffffffffffffffffffffffffffffff1673ffffffffffffffffffffffffffffffffffffffff1681526020018273ffffffffffffffffffffffffffffffffffffffff1673ffffffffffffffffffffffffffffffffffffffff1681526020019250505060206040518083038186803b1580156112e957600080fd5b505afa1580156112fd573d6000803e3d6000fd5b505050506040513d602081101561131357600080fd5b81019080805190602001909291905050500290506000811161139d576040517f08c379a00000000000000000000000000000000000000000000000000000000081526004018080602001828103825260178152602001807f496e76616c696420737570706f7274656420746f6b656e00000000000000000081525060200191505060405180910390fd5b6000869050818173ffffffffffffffffffffffffffffffffffffffff166370a08231856040518263ffffffff1660e01b8152600401808273ffffffffffffffffffffffffffffffffffffffff1673ffffffffffffffffffffffffffffffffffffffff16815260200191505060206040518083038186803b15801561142057600080fd5b505afa158015611434573d6000803e3d6000fd5b505050506040513d602081101561144a57600080fd5b8101908080519060200190929190505050116114b1576040517f08c379a000000000000000000000000000000000000000000000000000000000815260040180806020018281038252602f815260200180612018602f913960400191505060405180910390fd5b818173ffffffffffffffffffffffffffffffffffffffff166370a08231866040518263ffffffff1660e01b8152600401808273ffffffffffffffffffffffffffffffffffffffff1673ffffffffffffffffffffffffffffffffffffffff16815260200191505060206040518083038186803b15801561152f57600080fd5b505afa158015611543573d6000803e3d6000fd5b505050506040513d602081101561155957600080fd5b8101908080519060200190929190505050116115c0576040517f08c379a0000000000000000000000000000000000000000000000000000000008152600401808060200182810382526030815260200180611fe86030913960400191505060405180910390fd5b60008890508073ffffffffffffffffffffffffffffffffffffffff1663a9059cbb86896040518363ffffffff1660e01b8152600401808373ffffffffffffffffffffffffffffffffffffffff1673ffffffffffffffffffffffffffffffffffffffff16815260200182815260200192505050602060405180830381600087803b15801561164c57600080fd5b505af1158015611660573d6000803e3d6000fd5b505050506040513d602081101561167657600080fd5b8101908080519060200190929190505050508073ffffffffffffffffffffffffffffffffffffffff1663a9059cbb85896040518363ffffffff1660e01b8152600401808373ffffffffffffffffffffffffffffffffffffffff1673ffffffffffffffffffffffffffffffffffffffff16815260200182815260200192505050602060405180830381600087803b15801561170f57600080fd5b505af1158015611723573d6000803e3d6000fd5b505050506040513d602081101561173957600080fd5b8101908080519060200190929190505050508573ffffffffffffffffffffffffffffffffffffffff168973ffffffffffffffffffffffffffffffffffffffff167fc8337e707d8f74a609ac140abf9dc8387d501260a18e24feb9dc2185a93002628c8a604051808373ffffffffffffffffffffffffffffffffffffffff1673ffffffffffffffffffffffffffffffffffffffff1681526020018281526020019250505060405180910390a350505050505050505050565b6000600260008473ffffffffffffffffffffffffffffffffffffffff1673ffffffffffffffffffffffffffffffffffffffff168152602001908152602001600020549050600081116118aa576040517f08c379a00000000000000000000000000000000000000000000000000000000081526004018080602001828103825260158152602001807f546f6b656e206973206e6f74206d696e7461626c65000000000000000000000081525060200191505060405180910390fd5b600073ffffffffffffffffffffffffffffffffffffffff168273ffffffffffffffffffffffffffffffffffffffff16141561194d576040517f08c379a00000000000000000000000000000000000000000000000000000000081526004018080602001828103825260168152602001807f496e76616c696420737570706f72746564546f6b656e0000000000000000000081525060200191505060405180910390fd5b6000611957611fab565b9050600360008273ffffffffffffffffffffffffffffffffffffffff1673ffffffffffffffffffffffffffffffffffffffff16815260200190815260200160002060009054906101000a900460ff1615611a19576040517f08c379a00000000000000000000000000000000000000000000000000000000081526004018080602001828103825260198152602001807f4d696e7465722068617320616c7265616479206d696e7465640000000000000081525060200191505060405180910390fd5b6001600360008373ffffffffffffffffffffffffffffffffffffffff1673ffffffffffffffffffffffffffffffffffffffff16815260200190815260200160002060006101000a81548160ff0219169083151502179055506000600560009054906101000a900473ffffffffffffffffffffffffffffffffffffffff1673ffffffffffffffffffffffffffffffffffffffff1663168e868f8360006040518363ffffffff1660e01b8152600401808373ffffffffffffffffffffffffffffffffffffffff1673ffffffffffffffffffffffffffffffffffffffff1681526020018281526020019250505060206040518083038186803b158015611b1b57600080fd5b505afa158015611b2f573d6000803e3d6000fd5b505050506040513d6020811015611b4557600080fd5b8101908080519060200190929190505050905060006003600660009054906101000a900473ffffffffffffffffffffffffffffffffffffffff1673ffffffffffffffffffffffffffffffffffffffff16632509e05987600760009054906101000a900473ffffffffffffffffffffffffffffffffffffffff166040518363ffffffff1660e01b8152600401808373ffffffffffffffffffffffffffffffffffffffff1673ffffffffffffffffffffffffffffffffffffffff1681526020018273ffffffffffffffffffffffffffffffffffffffff1673ffffffffffffffffffffffffffffffffffffffff1681526020019250505060206040518083038186803b158015611c5157600080fd5b505afa158015611c65573d6000803e3d6000fd5b505050506040513d6020811015611c7b57600080fd5b810190808051906020019092919050505002905060008111611d05576040517f08c379a00000000000000000000000000000000000000000000000000000000081526004018080602001828103825260178152602001807f496e76616c696420737570706f7274656420746f6b656e00000000000000000081525060200191505060405180910390fd5b6000859050818173ffffffffffffffffffffffffffffffffffffffff166370a08231856040518263ffffffff1660e01b8152600401808273ffffffffffffffffffffffffffffffffffffffff1673ffffffffffffffffffffffffffffffffffffffff16815260200191505060206040518083038186803b158015611d8857600080fd5b505afa158015611d9c573d6000803e3d6000fd5b505050506040513d6020811015611db257600080fd5b810190808051906020019092919050505011611e19576040517f08c379a000000000000000000000000000000000000000000000000000000000815260040180806020018281038252602f815260200180612018602f913960400191505060405180910390fd5b60008790508073ffffffffffffffffffffffffffffffffffffffff1663a9059cbb85886040518363ffffffff1660e01b8152600401808373ffffffffffffffffffffffffffffffffffffffff1673ffffffffffffffffffffffffffffffffffffffff16815260200182815260200192505050602060405180830381600087803b158015611ea557600080fd5b505af1158015611eb9573d6000803e3d6000fd5b505050506040513d6020811015611ecf57600080fd5b8101908080519060200190929190505050508473ffffffffffffffffffffffffffffffffffffffff168873ffffffffffffffffffffffffffffffffffffffff167fc8337e707d8f74a609ac140abf9dc8387d501260a18e24feb9dc2185a9300262600089604051808373ffffffffffffffffffffffffffffffffffffffff1673ffffffffffffffffffffffffffffffffffffffff1681526020018281526020019250505060405180910390a35050505050505050565b600760009054906101000a900473ffffffffffffffffffffffffffffffffffffffff1681565b60006018600036905010158015611fc75750611fc633610808565b5b15611fdb57601436033560601c9050611fe3565b339050611fe4565b5b9056fe496e73756666696369656e7420737570706f7274656420746f6b656e2062616c616e636520666f722072656665726565496e73756666696369656e7420737570706f7274656420746f6b656e2062616c616e636520666f72206d696e746572a2646970667358221220334c80b947edc750a6625f3375c5408dd3ab97f491294b3997278cc6825e7ea264736f6c634300060a0033",
  "immutableReferences": {},
  "source": "pragma solidity ^0.6.10;\n\nimport \"@opengsn/gsn/contracts/BaseRelayRecipient.sol\";\nimport \"@openzeppelin/contracts/token/ERC20/IERC20.sol\";\nimport \"./IWalletFactory.sol\";\nimport \"./IPaymentManager.sol\";\n\n\n// SPDX-License-Identifier: MIT OR Apache-2.0\n\ncontract MintManager is BaseRelayRecipient {\n    string public override versionRecipient = \"2.0.0\";\n\n    mapping(address => uint256) public mintableTokens;\n    mapping(address => bool) public hasMinted;\n\n\n    event TokenMinted(address indexed _token, address _referee,  address indexed _minter, uint256 _valueMinted);\n\n\n    address public owner;\n    address public walletFactoryAddress;\n    address public paymentManagerAddress;\n    address public tokenFunction;\n\n    constructor(address _forwarder, address _tokenFunction) public {\n        owner = msg.sender;\n        trustedForwarder = _forwarder;\n        tokenFunction = _tokenFunction;\n    }\n\n    function setWalletFactoryAddress(address _walletFactoryAddress) external onlyOwner {\n        walletFactoryAddress = _walletFactoryAddress;\n    }\n\n    function setTokenFunction(address _tokenFunction) external onlyOwner {\n        tokenFunction = _tokenFunction;\n    }\n    \n    function setPaymentManagerAddress(address _paymentManagerAddress) external onlyOwner {\n        paymentManagerAddress = _paymentManagerAddress;\n    }\n    \n    function setMintValue(address _mintableToken, uint256 _mintValue) external onlyOwner {\n        mintableTokens[_mintableToken] = _mintValue;\n    }\n \n    function referralMint(address _referee, address _mintableToken, address _supportedToken) external {\n        uint256 mintableValue = mintableTokens[_mintableToken];\n        require(mintableValue > 0, \"Token is not mintable\");\n        require(_referee != address(0), \"Invalid referee\");\n        require(_supportedToken != address(0), \"Invalid supportedToken\");\n\n        address _minter =  _msgSender();\n        require(hasMinted[_referee], \"Referee has not minted\");\n        require(!hasMinted[_minter], \"Minter has already minted\");\n        hasMinted[_minter] = true;\n        hasMinted[_referee] = true;\n        address refereeGaslessAddress = IWalletFactory(walletFactoryAddress).getGaslessAddress(_referee, 0);\n        address minterGaslessAddress = IWalletFactory(walletFactoryAddress).getGaslessAddress(_minter, 0);\n        uint256 minimumBalance = (IPaymentManager(paymentManagerAddress).getAdminTokenFee(_supportedToken, tokenFunction) * 3);\n        require(minimumBalance > 0, \"Invalid supported token\");\n        IERC20 supportedTokenContract = IERC20(_supportedToken);\n        require(supportedTokenContract.balanceOf(minterGaslessAddress) > minimumBalance, \"Insufficient supported token balance for minter\");\n        require(supportedTokenContract.balanceOf(refereeGaslessAddress) > minimumBalance, \"Insufficient supported token balance for referee\");\n        IERC20 mintableTokenContract = IERC20(_mintableToken);\n        mintableTokenContract.transfer(refereeGaslessAddress, mintableValue);\n        mintableTokenContract.transfer(minterGaslessAddress, mintableValue);\n        emit TokenMinted(_mintableToken, _referee,  _minter, mintableValue);\n        // referee should have minted and should have supported token balance\n        // this address has not minted and should have supported token balance\n    }\n    \n    function mint(address _mintableToken, address _supportedToken) external {\n        uint256 mintableValue = mintableTokens[_mintableToken];\n        require(mintableValue > 0, \"Token is not mintable\");\n        require(_supportedToken != address(0), \"Invalid supportedToken\");\n\n        address _minter =  _msgSender();\n\n        require(!hasMinted[_minter], \"Minter has already minted\");\n        hasMinted[_minter] = true;\n\n        address minterGaslessAddress = IWalletFactory(walletFactoryAddress).getGaslessAddress(_minter, 0);\n        uint256 minimumBalance = (IPaymentManager(paymentManagerAddress).getAdminTokenFee(_supportedToken, tokenFunction) * 3);\n        require(minimumBalance > 0, \"Invalid supported token\");\n        IERC20 supportedTokenContract = IERC20(_supportedToken);\n        require(supportedTokenContract.balanceOf(minterGaslessAddress) > minimumBalance, \"Insufficient supported token balance for minter\");\n        IERC20 mintableTokenContract = IERC20(_mintableToken);\n        mintableTokenContract.transfer(minterGaslessAddress, mintableValue);\n        emit TokenMinted(_mintableToken, address(0),  _minter, mintableValue);\n\n        // this address has not minted and should have supported token balance\n    }\n\n\n    modifier onlyOwner() {\n        require(owner == msg.sender, \": caller is not the owner\");\n        _;\n    }\n}",
  "sourcePath": "/Users/hakeemorewole/projects/1aa/multisend/gasless/contracts/MintManager.sol",
  "compiler": {
    "name": "solc",
    "version": "0.6.10+commit.00c0fcaf.Emscripten.clang"
  },
  "schemaVersion": "3.2.3",
  "updatedAt": "2021-02-10T10:11:14.414Z",
  "devdoc": {
    "methods": {}
  },
  "userdoc": {
    "methods": {}
  }
}