{
  "contractName": "OneInchFunction",
  "abi": [
    {
      "inputs": [
        {
          "internalType": "address",
          "name": "_token",
          "type": "address"
        },
        {
          "internalType": "address",
          "name": "_spender",
          "type": "address"
        },
        {
          "internalType": "bytes",
          "name": "approvalData",
          "type": "bytes"
        },
        {
          "internalType": "bytes",
          "name": "_spendData",
          "type": "bytes"
        }
      ],
      "name": "routeToken",
      "outputs": [
        {
          "internalType": "bool",
          "name": "success",
          "type": "bool"
        }
      ],
      "stateMutability": "nonpayable",
      "type": "function"
    },
    {
      "inputs": [
        {
          "internalType": "address",
          "name": "_token",
          "type": "address"
        },
        {
          "internalType": "address",
          "name": "_spender",
          "type": "address"
        },
        {
          "internalType": "bytes",
          "name": "approvalData",
          "type": "bytes"
        },
        {
          "internalType": "bytes",
          "name": "_spendData",
          "type": "bytes"
        }
      ],
      "name": "calcCallData",
      "outputs": [
        {
          "internalType": "bytes",
          "name": "data",
          "type": "bytes"
        }
      ],
      "stateMutability": "pure",
      "type": "function"
    }
  ],
  "bytecode": "0x608060405234801561001057600080fd5b50610665806100206000396000f3fe608060405234801561001057600080fd5b50600436106100365760003560e01c80633f1dd5821461003b578063be287113146101c2575b600080fd5b6101476004803603608081101561005157600080fd5b81019080803573ffffffffffffffffffffffffffffffffffffffff169060200190929190803573ffffffffffffffffffffffffffffffffffffffff169060200190929190803590602001906401000000008111156100ae57600080fd5b8201836020820111156100c057600080fd5b803590602001918460018302840111640100000000831117156100e257600080fd5b90919293919293908035906020019064010000000081111561010357600080fd5b82018360208201111561011557600080fd5b8035906020019184600183028401116401000000008311171561013757600080fd5b90919293919293905050506102e8565b6040518080602001828103825283818151815260200191508051906020019080838360005b8381101561018757808201518184015260208101905061016c565b50505050905090810190601f1680156101b45780820380516001836020036101000a031916815260200191505b509250505060405180910390f35b6102ce600480360360808110156101d857600080fd5b81019080803573ffffffffffffffffffffffffffffffffffffffff169060200190929190803573ffffffffffffffffffffffffffffffffffffffff1690602001909291908035906020019064010000000081111561023557600080fd5b82018360208201111561024757600080fd5b8035906020019184600183028401116401000000008311171561026957600080fd5b90919293919293908035906020019064010000000081111561028a57600080fd5b82018360208201111561029c57600080fd5b803590602001918460018302840111640100000000831117156102be57600080fd5b909192939192939050505061044c565b604051808215151515815260200191505060405180910390f35b6060868686868686604051602401808773ffffffffffffffffffffffffffffffffffffffff1673ffffffffffffffffffffffffffffffffffffffff1681526020018673ffffffffffffffffffffffffffffffffffffffff1673ffffffffffffffffffffffffffffffffffffffff16815260200180602001806020018381038352878782818152602001925080828437600081840152601f19601f8201169050808301925050508381038252858582818152602001925080828437600081840152601f19601f820116905080830192505050985050505050505050506040516020818303038152906040527fbe287113000000000000000000000000000000000000000000000000000000007bffffffffffffffffffffffffffffffffffffffffffffffffffffffff19166020820180517bffffffffffffffffffffffffffffffffffffffffffffffffffffffff838183161783525050505090509695505050505050565b6000808773ffffffffffffffffffffffffffffffffffffffff1686866040518083838082843780830192505050925050506000604051808303816000865af19150503d80600081146104ba576040519150601f19603f3d011682016040523d82523d6000602084013e6104bf565b606091505b5050905080610536576040517f08c379a00000000000000000000000000000000000000000000000000000000081526004018080602001828103825260138152602001807f417070726f76652063616c6c206661696c65640000000000000000000000000081525060200191505060405180910390fd5b60008773ffffffffffffffffffffffffffffffffffffffff1685856040518083838082843780830192505050925050506000604051808303816000865af19150503d80600081146105a3576040519150601f19603f3d011682016040523d82523d6000602084013e6105a8565b606091505b505090508061061f576040517f08c379a00000000000000000000000000000000000000000000000000000000081526004018080602001828103825260108152602001807f5370656e642063616c6c206661696c730000000000000000000000000000000081525060200191505060405180910390fd5b600192505050969550505050505056fea2646970667358221220a353fd584044f397b66e6d48ba021c7d42962c20d8cf9f312255183b15e8922d64736f6c634300060a0033",
  "immutableReferences": {},
  "source": "pragma solidity 0.6.10;\n\n// SPDX-License-Identifier: MIT OR Apache-2.0\n\n\n\ncontract OneInchFunction {\n\n    function routeToken(address _token, address _spender, bytes calldata approvalData, bytes calldata _spendData) external returns (bool success){\n       (bool _success1, ) = _token.call(approvalData);\n       require(_success1, \"Approve call failed\");\n       (bool _success, ) = _spender.call(_spendData);\n       require(_success, \"Spend call fails\");\n       return true;\n    }\n    \n    function calcCallData(address _token, address _spender, bytes calldata approvalData, bytes calldata _spendData) pure external returns (bytes memory data){\n        return abi.encodeWithSignature(\"routeToken(address,address,bytes,bytes)\", _token, _spender, approvalData, _spendData);\n    }\n}\n",
  "sourcePath": "/Users/hakeemorewole/projects/1aa/multisend/gasless/contracts/OneInchFunction.sol",
  "compiler": {
    "name": "solc",
    "version": "0.6.10+commit.00c0fcaf.Emscripten.clang"
  },
  "schemaVersion": "3.2.3",
  "updatedAt": "2021-02-12T09:32:16.743Z",
  "devdoc": {
    "methods": {}
  },
  "userdoc": {
    "methods": {}
  }
}