{
  "contractName": "UniswapFunction",
  "abi": [
    {
      "inputs": [
        {
          "internalType": "address",
          "name": "_uniswap",
          "type": "address"
        },
        {
          "internalType": "uint256",
          "name": "amountIn",
          "type": "uint256"
        },
        {
          "internalType": "uint256",
          "name": "amountOutMin",
          "type": "uint256"
        },
        {
          "internalType": "address[]",
          "name": "path",
          "type": "address[]"
        },
        {
          "internalType": "address",
          "name": "to",
          "type": "address"
        },
        {
          "internalType": "uint256",
          "name": "deadline",
          "type": "uint256"
        }
      ],
      "name": "routeToken",
      "outputs": [
        {
          "internalType": "bool",
          "name": "success",
          "type": "bool"
        }
      ],
      "stateMutability": "nonpayable",
      "type": "function"
    },
    {
      "inputs": [
        {
          "internalType": "address",
          "name": "_uniswap",
          "type": "address"
        },
        {
          "internalType": "uint256",
          "name": "amountIn",
          "type": "uint256"
        },
        {
          "internalType": "uint256",
          "name": "amountOutMin",
          "type": "uint256"
        },
        {
          "internalType": "address[]",
          "name": "path",
          "type": "address[]"
        },
        {
          "internalType": "address",
          "name": "to",
          "type": "address"
        },
        {
          "internalType": "uint256",
          "name": "deadline",
          "type": "uint256"
        }
      ],
      "name": "calcCallData",
      "outputs": [
        {
          "internalType": "bytes",
          "name": "data",
          "type": "bytes"
        }
      ],
      "stateMutability": "pure",
      "type": "function"
    }
  ],
  "bytecode": "0x608060405234801561001057600080fd5b5061079a806100206000396000f3fe608060405234801561001057600080fd5b50600436106100365760003560e01c806346e26c7b1461003b578063aa0c6eac1461012a575b600080fd5b610110600480360360c081101561005157600080fd5b81019080803573ffffffffffffffffffffffffffffffffffffffff1690602001909291908035906020019092919080359060200190929190803590602001906401000000008111156100a257600080fd5b8201836020820111156100b457600080fd5b803590602001918460208302840111640100000000831117156100d657600080fd5b9091929391929390803573ffffffffffffffffffffffffffffffffffffffff1690602001909291908035906020019092919050505061027a565b604051808215151515815260200191505060405180910390f35b6101ff600480360360c081101561014057600080fd5b81019080803573ffffffffffffffffffffffffffffffffffffffff16906020019092919080359060200190929190803590602001909291908035906020019064010000000081111561019157600080fd5b8201836020820111156101a357600080fd5b803590602001918460208302840111640100000000831117156101c557600080fd5b9091929391929390803573ffffffffffffffffffffffffffffffffffffffff16906020019092919080359060200190929190505050610618565b6040518080602001828103825283818151815260200191508051906020019080838360005b8381101561023f578082015181840152602081019050610224565b50505050905090810190601f16801561026c5780820380516001836020036101000a031916815260200191505b509250505060405180910390f35b6000808585600081811061028a57fe5b9050602002013573ffffffffffffffffffffffffffffffffffffffff1690506000868660018181106102b857fe5b9050602002013573ffffffffffffffffffffffffffffffffffffffff1690508173ffffffffffffffffffffffffffffffffffffffff1663095ea7b38b8b6040518363ffffffff1660e01b8152600401808373ffffffffffffffffffffffffffffffffffffffff1673ffffffffffffffffffffffffffffffffffffffff16815260200182815260200192505050602060405180830381600087803b15801561035e57600080fd5b505af1158015610372573d6000803e3d6000fd5b505050506040513d602081101561038857600080fd5b8101908080519060200190929190505050508073ffffffffffffffffffffffffffffffffffffffff1663095ea7b38b8b6040518363ffffffff1660e01b8152600401808373ffffffffffffffffffffffffffffffffffffffff1673ffffffffffffffffffffffffffffffffffffffff16815260200182815260200192505050602060405180830381600087803b15801561042157600080fd5b505af1158015610435573d6000803e3d6000fd5b505050506040513d602081101561044b57600080fd5b81019080805190602001909291905050505060008a90508073ffffffffffffffffffffffffffffffffffffffff166318cbafe58b8b8b8b8b8b6040518763ffffffff1660e01b815260040180878152602001868152602001806020018473ffffffffffffffffffffffffffffffffffffffff1673ffffffffffffffffffffffffffffffffffffffff1681526020018381526020018281038252868682818152602001925060200280828437600081840152601f19601f820116905080830192505050975050505050505050600060405180830381600087803b15801561053057600080fd5b505af1158015610544573d6000803e3d6000fd5b505050506040513d6000823e3d601f19601f82011682018060405250602081101561056e57600080fd5b810190808051604051939291908464010000000082111561058e57600080fd5b838201915060208201858111156105a457600080fd5b82518660208202830111640100000000821117156105c157600080fd5b8083526020830192505050908051906020019060200280838360005b838110156105f85780820151818401526020810190506105dd565b505050509050016040525050505060019350505050979650505050505050565b606087878787878787604051602401808873ffffffffffffffffffffffffffffffffffffffff1673ffffffffffffffffffffffffffffffffffffffff168152602001878152602001868152602001806020018473ffffffffffffffffffffffffffffffffffffffff1673ffffffffffffffffffffffffffffffffffffffff1681526020018381526020018281038252868682818152602001925060200280828437600081840152601f19601f820116905080830192505050985050505050505050506040516020818303038152906040527fdaf55092000000000000000000000000000000000000000000000000000000007bffffffffffffffffffffffffffffffffffffffffffffffffffffffff19166020820180517bffffffffffffffffffffffffffffffffffffffffffffffffffffffff8381831617835250505050905097965050505050505056fea2646970667358221220256af7d05cd158a322f3a1053425e5c4b8ac9badfac7d4023d65213a29d9490664736f6c634300060a0033",
  "immutableReferences": {},
  "source": "  \npragma solidity 0.6.10;\n\n// SPDX-License-Identifier: MIT OR Apache-2.0\nimport './IUniswapV2Router02.sol';\nimport \"@openzeppelin/contracts/token/ERC20/IERC20.sol\";\n\n\ncontract UniswapFunction {\n\n    function routeToken(address _uniswap, uint amountIn, uint amountOutMin, address[] calldata path, address to, uint deadline) external returns (bool success){\n       IERC20 token0 = IERC20(path[0]);\n       IERC20 token1 = IERC20(path[1]);\n       token0.approve(_uniswap, amountIn);\n       token1.approve(_uniswap, amountIn);\n       IUniswapV2Router02 uniswapRouter = IUniswapV2Router02(_uniswap);\n       uniswapRouter.swapExactTokensForETH(amountIn, amountOutMin, path, to, deadline);\n       return true;\n    }\n    \n    function calcCallData(address _uniswap, uint amountIn, uint amountOutMin, address[] calldata path, address to, uint deadline) pure external returns (bytes memory data){\n        return abi.encodeWithSignature(\"routeToken(address,uint,uint,address[],address,uint)\", _uniswap, amountIn, amountOutMin, path, to, deadline);\n    }\n}\n",
  "sourcePath": "/Users/hakeemorewole/projects/1aa/multisend/gasless/contracts/UniswapFunction.sol",
  "compiler": {
    "name": "solc",
    "version": "0.6.10+commit.00c0fcaf.Emscripten.clang"
  },
  "schemaVersion": "3.2.3",
  "updatedAt": "2021-02-10T10:11:14.435Z",
  "devdoc": {
    "methods": {}
  },
  "userdoc": {
    "methods": {}
  }
}