{
  "contractName": "WalletFactory",
  "abi": [
    {
      "inputs": [
        {
          "internalType": "address",
          "name": "_forwarder",
          "type": "address"
        },
        {
          "internalType": "address",
          "name": "_manager",
          "type": "address"
        }
      ],
      "stateMutability": "nonpayable",
      "type": "constructor"
    },
    {
      "anonymous": false,
      "inputs": [
        {
          "indexed": true,
          "internalType": "address",
          "name": "_addr",
          "type": "address"
        },
        {
          "indexed": true,
          "internalType": "address",
          "name": "_sender",
          "type": "address"
        }
      ],
      "name": "Addr",
      "type": "event"
    },
    {
      "anonymous": false,
      "inputs": [
        {
          "indexed": true,
          "internalType": "address",
          "name": "_from",
          "type": "address"
        },
        {
          "indexed": true,
          "internalType": "address",
          "name": "_delegate",
          "type": "address"
        },
        {
          "indexed": true,
          "internalType": "address",
          "name": "feeReceiver",
          "type": "address"
        },
        {
          "indexed": false,
          "internalType": "uint256",
          "name": "fee",
          "type": "uint256"
        },
        {
          "indexed": false,
          "internalType": "uint256",
          "name": "salt",
          "type": "uint256"
        }
      ],
      "name": "Spend",
      "type": "event"
    },
    {
      "inputs": [
        {
          "internalType": "address",
          "name": "forwarder",
          "type": "address"
        }
      ],
      "name": "isTrustedForwarder",
      "outputs": [
        {
          "internalType": "bool",
          "name": "",
          "type": "bool"
        }
      ],
      "stateMutability": "view",
      "type": "function"
    },
    {
      "inputs": [],
      "name": "manager",
      "outputs": [
        {
          "internalType": "address",
          "name": "",
          "type": "address"
        }
      ],
      "stateMutability": "view",
      "type": "function"
    },
    {
      "inputs": [],
      "name": "owner",
      "outputs": [
        {
          "internalType": "address",
          "name": "",
          "type": "address"
        }
      ],
      "stateMutability": "view",
      "type": "function"
    },
    {
      "inputs": [],
      "name": "trustedForwarder",
      "outputs": [
        {
          "internalType": "address",
          "name": "",
          "type": "address"
        }
      ],
      "stateMutability": "view",
      "type": "function"
    },
    {
      "inputs": [],
      "name": "versionRecipient",
      "outputs": [
        {
          "internalType": "string",
          "name": "",
          "type": "string"
        }
      ],
      "stateMutability": "view",
      "type": "function"
    },
    {
      "inputs": [
        {
          "internalType": "address",
          "name": "_manager",
          "type": "address"
        }
      ],
      "name": "setManager",
      "outputs": [],
      "stateMutability": "nonpayable",
      "type": "function"
    },
    {
      "inputs": [
        {
          "internalType": "address",
          "name": "_token",
          "type": "address"
        },
        {
          "internalType": "uint256",
          "name": "_salt",
          "type": "uint256"
        },
        {
          "internalType": "address",
          "name": "_feeReceiver",
          "type": "address"
        },
        {
          "internalType": "uint256",
          "name": "_fee",
          "type": "uint256"
        },
        {
          "internalType": "address",
          "name": "_delegate",
          "type": "address"
        },
        {
          "internalType": "bytes",
          "name": "_callData",
          "type": "bytes"
        }
      ],
      "name": "gaslessTransferToken",
      "outputs": [],
      "stateMutability": "nonpayable",
      "type": "function"
    },
    {
      "inputs": [
        {
          "internalType": "uint256",
          "name": "_salt",
          "type": "uint256"
        },
        {
          "internalType": "address",
          "name": "_delegate",
          "type": "address"
        },
        {
          "internalType": "bytes",
          "name": "_callData",
          "type": "bytes"
        }
      ],
      "name": "transferToken",
      "outputs": [],
      "stateMutability": "nonpayable",
      "type": "function"
    },
    {
      "inputs": [
        {
          "internalType": "uint256",
          "name": "_salt",
          "type": "uint256"
        }
      ],
      "name": "getAddress",
      "outputs": [],
      "stateMutability": "nonpayable",
      "type": "function"
    },
    {
      "inputs": [
        {
          "internalType": "uint256",
          "name": "salt",
          "type": "uint256"
        }
      ],
      "name": "calcSpenderAddress",
      "outputs": [
        {
          "internalType": "address",
          "name": "",
          "type": "address"
        },
        {
          "internalType": "address",
          "name": "",
          "type": "address"
        },
        {
          "internalType": "address",
          "name": "",
          "type": "address"
        }
      ],
      "stateMutability": "view",
      "type": "function"
    },
    {
      "inputs": [
        {
          "internalType": "address",
          "name": "_sender",
          "type": "address"
        },
        {
          "internalType": "uint256",
          "name": "salt",
          "type": "uint256"
        }
      ],
      "name": "getGaslessAddress",
      "outputs": [
        {
          "internalType": "address",
          "name": "",
          "type": "address"
        }
      ],
      "stateMutability": "view",
      "type": "function"
    },
    {
      "inputs": [],
      "name": "getCreationCode",
      "outputs": [
        {
          "internalType": "bytes",
          "name": "",
          "type": "bytes"
        }
      ],
      "stateMutability": "pure",
      "type": "function"
    },
    {
      "inputs": [
        {
          "internalType": "address",
          "name": "_spender",
          "type": "address"
        },
        {
          "internalType": "address",
          "name": "_delegate",
          "type": "address"
        },
        {
          "internalType": "bytes",
          "name": "_callData",
          "type": "bytes"
        }
      ],
      "name": "spendIt",
      "outputs": [],
      "stateMutability": "nonpayable",
      "type": "function"
    }
  ],
  "bytecode": "0x60806040526040518060400160405280600581526020017f322e302e3000000000000000000000000000000000000000000000000000000081525060019080519060200190620000519291906200016a565b503480156200005f57600080fd5b506040516200215938038062002159833981810160405260408110156200008557600080fd5b810190808051906020019092919080519060200190929190505050816000806101000a81548173ffffffffffffffffffffffffffffffffffffffff021916908373ffffffffffffffffffffffffffffffffffffffff16021790555080600260006101000a81548173ffffffffffffffffffffffffffffffffffffffff021916908373ffffffffffffffffffffffffffffffffffffffff16021790555033600360006101000a81548173ffffffffffffffffffffffffffffffffffffffff021916908373ffffffffffffffffffffffffffffffffffffffff160217905550505062000219565b828054600181600116156101000203166002900490600052602060002090601f016020900481019282601f10620001ad57805160ff1916838001178555620001de565b82800160010185558215620001de579182015b82811115620001dd578251825591602001919060010190620001c0565b5b509050620001ed9190620001f1565b5090565b6200021691905b8082111562000212576000816000905550600101620001f8565b5090565b90565b611f3080620002296000396000f3fe608060405234801561001057600080fd5b50600436106100ce5760003560e01c8063572b6c051161008c578063b58f765a11610066578063b58f765a14610547578063b93f9b0a1461061b578063bc20a69c14610649578063d0ebdbe7146106ec576100ce565b8063572b6c05146104575780637da0a877146104b35780638da5cb5b146104fd576100ce565b8062c194db146100d3578063168e868f14610156578063415a38d4146101e457806344c177a2146102d1578063481c6a751461038a578063486ff0cd146103d4575b600080fd5b6100db610730565b6040518080602001828103825283818151815260200191508051906020019080838360005b8381101561011b578082015181840152602081019050610100565b50505050905090810190601f1680156101485780820380516001836020036101000a031916815260200191505b509250505060405180910390f35b6101a26004803603604081101561016c57600080fd5b81019080803573ffffffffffffffffffffffffffffffffffffffff1690602001909291908035906020019092919050505061075b565b604051808273ffffffffffffffffffffffffffffffffffffffff1673ffffffffffffffffffffffffffffffffffffffff16815260200191505060405180910390f35b6102cf600480360360c08110156101fa57600080fd5b81019080803573ffffffffffffffffffffffffffffffffffffffff16906020019092919080359060200190929190803573ffffffffffffffffffffffffffffffffffffffff16906020019092919080359060200190929190803573ffffffffffffffffffffffffffffffffffffffff1690602001909291908035906020019064010000000081111561028b57600080fd5b82018360208201111561029d57600080fd5b803590602001918460018302840111640100000000831117156102bf57600080fd5b90919293919293905050506108ad565b005b610388600480360360608110156102e757600080fd5b81019080803573ffffffffffffffffffffffffffffffffffffffff169060200190929190803573ffffffffffffffffffffffffffffffffffffffff1690602001909291908035906020019064010000000081111561034457600080fd5b82018360208201111561035657600080fd5b8035906020019184600183028401116401000000008311171561037857600080fd5b9091929391929390505050610d8c565b005b610392611052565b604051808273ffffffffffffffffffffffffffffffffffffffff1673ffffffffffffffffffffffffffffffffffffffff16815260200191505060405180910390f35b6103dc611078565b6040518080602001828103825283818151815260200191508051906020019080838360005b8381101561041c578082015181840152602081019050610401565b50505050905090810190601f1680156104495780820380516001836020036101000a031916815260200191505b509250505060405180910390f35b6104996004803603602081101561046d57600080fd5b81019080803573ffffffffffffffffffffffffffffffffffffffff169060200190929190505050611116565b604051808215151515815260200191505060405180910390f35b6104bb61116f565b604051808273ffffffffffffffffffffffffffffffffffffffff1673ffffffffffffffffffffffffffffffffffffffff16815260200191505060405180910390f35b610505611194565b604051808273ffffffffffffffffffffffffffffffffffffffff1673ffffffffffffffffffffffffffffffffffffffff16815260200191505060405180910390f35b6105736004803603602081101561055d57600080fd5b81019080803590602001909291905050506111ba565b604051808473ffffffffffffffffffffffffffffffffffffffff1673ffffffffffffffffffffffffffffffffffffffff1681526020018373ffffffffffffffffffffffffffffffffffffffff1673ffffffffffffffffffffffffffffffffffffffff1681526020018273ffffffffffffffffffffffffffffffffffffffff1673ffffffffffffffffffffffffffffffffffffffff168152602001935050505060405180910390f35b6106476004803603602081101561063157600080fd5b81019080803590602001909291905050506112a4565b005b6106ea6004803603606081101561065f57600080fd5b8101908080359060200190929190803573ffffffffffffffffffffffffffffffffffffffff169060200190929190803590602001906401000000008111156106a657600080fd5b8201836020820111156106b857600080fd5b803590602001918460018302840111640100000000831117156106da57600080fd5b909192939192939050505061144a565b005b61072e6004803603602081101561070257600080fd5b81019080803573ffffffffffffffffffffffffffffffffffffffff1690602001909291905050506117a4565b005b606060405180602001610742906118ee565b6020820181038252601f19601f82011660405250905090565b6000808383604051602001808373ffffffffffffffffffffffffffffffffffffffff1673ffffffffffffffffffffffffffffffffffffffff16815260200182815260200192505050604051602081830303815290604052805190602001209050600060ff60f81b3083604051806020016107d4906118ee565b6020820181038252601f19601f820116604052508051906020012060405160200180857effffffffffffffffffffffffffffffffffffffffffffffffffffffffffffff19167effffffffffffffffffffffffffffffffffffffffffffffffffffffffffffff191681526001018473ffffffffffffffffffffffffffffffffffffffff1673ffffffffffffffffffffffffffffffffffffffff1660601b81526014018381526020018281526020019450505050506040516020818303038152906040528051906020012060001c9050809250505092915050565b60006108b76118b2565b87604051602001808373ffffffffffffffffffffffffffffffffffffffff1673ffffffffffffffffffffffffffffffffffffffff16815260200182815260200192505050604051602081830303815290604052805190602001209050600081604051610922906118ee565b8190604051809103906000f5905080158015610942573d6000803e3d6000fd5b509050600260009054906101000a900473ffffffffffffffffffffffffffffffffffffffff1673ffffffffffffffffffffffffffffffffffffffff166302efaa3b8a878a8a6040518563ffffffff1660e01b8152600401808573ffffffffffffffffffffffffffffffffffffffff1673ffffffffffffffffffffffffffffffffffffffff1681526020018473ffffffffffffffffffffffffffffffffffffffff1673ffffffffffffffffffffffffffffffffffffffff1681526020018373ffffffffffffffffffffffffffffffffffffffff1673ffffffffffffffffffffffffffffffffffffffff16815260200182815260200194505050505060206040518083038186803b158015610a5457600080fd5b505afa158015610a68573d6000803e3d6000fd5b505050506040513d6020811015610a7e57600080fd5b8101908080519060200190929190505050610b01576040517f08c379a00000000000000000000000000000000000000000000000000000000081526004018080602001828103825260158152602001807f4d616e616765722072656a65637465642063616c6c000000000000000000000081525060200191505060405180910390fd5b8073ffffffffffffffffffffffffffffffffffffffff1663d68086708a89898989896040518763ffffffff1660e01b8152600401808773ffffffffffffffffffffffffffffffffffffffff1673ffffffffffffffffffffffffffffffffffffffff1681526020018673ffffffffffffffffffffffffffffffffffffffff1673ffffffffffffffffffffffffffffffffffffffff1681526020018581526020018473ffffffffffffffffffffffffffffffffffffffff1673ffffffffffffffffffffffffffffffffffffffff168152602001806020018281038252848482818152602001925080828437600081840152601f19601f820116905080830192505050975050505050505050602060405180830381600087803b158015610c2457600080fd5b505af1158015610c38573d6000803e3d6000fd5b505050506040513d6020811015610c4e57600080fd5b8101908080519060200190929190505050508073ffffffffffffffffffffffffffffffffffffffff1662f55d9d610c836118b2565b6040518263ffffffff1660e01b8152600401808273ffffffffffffffffffffffffffffffffffffffff1673ffffffffffffffffffffffffffffffffffffffff168152602001915050600060405180830381600087803b158015610ce557600080fd5b505af1158015610cf9573d6000803e3d6000fd5b505050508673ffffffffffffffffffffffffffffffffffffffff168573ffffffffffffffffffffffffffffffffffffffff168273ffffffffffffffffffffffffffffffffffffffff167f39517675df9990cf1a2c3e5522ecf32355fd61629f4ad0553dddac99d68aa3f6898c604051808381526020018281526020019250505060405180910390a4505050505050505050565b610d946118b2565b73ffffffffffffffffffffffffffffffffffffffff163373ffffffffffffffffffffffffffffffffffffffff1614610e34576040517f08c379a00000000000000000000000000000000000000000000000000000000081526004018080602001828103825260198152602001807f3a2063616c6c6572206973206e6f7420746865206f776e65720000000000000081525060200191505060405180910390fd5b60008490508073ffffffffffffffffffffffffffffffffffffffff1663ad50997e8585856040518463ffffffff1660e01b8152600401808473ffffffffffffffffffffffffffffffffffffffff1673ffffffffffffffffffffffffffffffffffffffff168152602001806020018281038252848482818152602001925080828437600081840152601f19601f820116905080830192505050945050505050602060405180830381600087803b158015610eec57600080fd5b505af1158015610f00573d6000803e3d6000fd5b505050506040513d6020811015610f1657600080fd5b8101908080519060200190929190505050508073ffffffffffffffffffffffffffffffffffffffff1662f55d9d610f4b6118b2565b6040518263ffffffff1660e01b8152600401808273ffffffffffffffffffffffffffffffffffffffff1673ffffffffffffffffffffffffffffffffffffffff168152602001915050600060405180830381600087803b158015610fad57600080fd5b505af1158015610fc1573d6000803e3d6000fd5b50505050600073ffffffffffffffffffffffffffffffffffffffff168473ffffffffffffffffffffffffffffffffffffffff168273ffffffffffffffffffffffffffffffffffffffff167f39517675df9990cf1a2c3e5522ecf32355fd61629f4ad0553dddac99d68aa3f6600080604051808381526020018281526020019250505060405180910390a45050505050565b600260009054906101000a900473ffffffffffffffffffffffffffffffffffffffff1681565b60018054600181600116156101000203166002900480601f01602080910402602001604051908101604052809291908181526020018280546001816001161561010002031660029004801561110e5780601f106110e35761010080835404028352916020019161110e565b820191906000526020600020905b8154815290600101906020018083116110f157829003601f168201915b505050505081565b60008060009054906101000a900473ffffffffffffffffffffffffffffffffffffffff1673ffffffffffffffffffffffffffffffffffffffff168273ffffffffffffffffffffffffffffffffffffffff16149050919050565b6000809054906101000a900473ffffffffffffffffffffffffffffffffffffffff1681565b600360009054906101000a900473ffffffffffffffffffffffffffffffffffffffff1681565b6000806000803073ffffffffffffffffffffffffffffffffffffffff1663168e868f6111e46118b2565b876040518363ffffffff1660e01b8152600401808373ffffffffffffffffffffffffffffffffffffffff1673ffffffffffffffffffffffffffffffffffffffff1681526020018281526020019250505060206040518083038186803b15801561124c57600080fd5b505afa158015611260573d6000803e3d6000fd5b505050506040513d602081101561127657600080fd5b8101908080519060200190929190505050905080306112936118b2565b809050935093509350509193909250565b6112ac6118b2565b73ffffffffffffffffffffffffffffffffffffffff163373ffffffffffffffffffffffffffffffffffffffff161461134c576040517f08c379a00000000000000000000000000000000000000000000000000000000081526004018080602001828103825260198152602001807f3a2063616c6c6572206973206e6f7420746865206f776e65720000000000000081525060200191505060405180910390fd5b60006113566118b2565b82604051602001808373ffffffffffffffffffffffffffffffffffffffff1673ffffffffffffffffffffffffffffffffffffffff168152602001828152602001925050506040516020818303038152906040528051906020012090506000816040516113c1906118ee565b8190604051809103906000f59050801580156113e1573d6000803e3d6000fd5b5090506113ec6118b2565b73ffffffffffffffffffffffffffffffffffffffff168173ffffffffffffffffffffffffffffffffffffffff167f2ab9a843c45e3af720d39aee44e9623452cf086b55e3481df601dc002a954a2960405160405180910390a3505050565b6114526118b2565b73ffffffffffffffffffffffffffffffffffffffff163373ffffffffffffffffffffffffffffffffffffffff16146114f2576040517f08c379a00000000000000000000000000000000000000000000000000000000081526004018080602001828103825260198152602001807f3a2063616c6c6572206973206e6f7420746865206f776e65720000000000000081525060200191505060405180910390fd5b60006114fc6118b2565b85604051602001808373ffffffffffffffffffffffffffffffffffffffff1673ffffffffffffffffffffffffffffffffffffffff16815260200182815260200192505050604051602081830303815290604052805190602001209050600081604051611567906118ee565b8190604051809103906000f5905080158015611587573d6000803e3d6000fd5b5090508073ffffffffffffffffffffffffffffffffffffffff1663ad50997e8686866040518463ffffffff1660e01b8152600401808473ffffffffffffffffffffffffffffffffffffffff1673ffffffffffffffffffffffffffffffffffffffff168152602001806020018281038252848482818152602001925080828437600081840152601f19601f820116905080830192505050945050505050602060405180830381600087803b15801561163d57600080fd5b505af1158015611651573d6000803e3d6000fd5b505050506040513d602081101561166757600080fd5b8101908080519060200190929190505050508073ffffffffffffffffffffffffffffffffffffffff1662f55d9d61169c6118b2565b6040518263ffffffff1660e01b8152600401808273ffffffffffffffffffffffffffffffffffffffff1673ffffffffffffffffffffffffffffffffffffffff168152602001915050600060405180830381600087803b1580156116fe57600080fd5b505af1158015611712573d6000803e3d6000fd5b50505050600073ffffffffffffffffffffffffffffffffffffffff168573ffffffffffffffffffffffffffffffffffffffff168273ffffffffffffffffffffffffffffffffffffffff167f39517675df9990cf1a2c3e5522ecf32355fd61629f4ad0553dddac99d68aa3f660008a604051808381526020018281526020019250505060405180910390a4505050505050565b6117ac6118b2565b73ffffffffffffffffffffffffffffffffffffffff16600360009054906101000a900473ffffffffffffffffffffffffffffffffffffffff1673ffffffffffffffffffffffffffffffffffffffff161461186e576040517f08c379a00000000000000000000000000000000000000000000000000000000081526004018080602001828103825260198152602001807f3a2063616c6c6572206973206e6f7420746865206f776e65720000000000000081525060200191505060405180910390fd5b80600260006101000a81548173ffffffffffffffffffffffffffffffffffffffff021916908373ffffffffffffffffffffffffffffffffffffffff16021790555050565b600060186000369050101580156118ce57506118cd33611116565b5b156118e257601436033560601c90506118ea565b3390506118eb565b5b90565b6105ff806118fc8339019056fe608060405234801561001057600080fd5b506105df806100206000396000f3fe608060405234801561001057600080fd5b50600436106100405760003560e01c8062f55d9d14610045578063ad50997e14610089578063d68086701461013a575b600080fd5b6100876004803603602081101561005b57600080fd5b81019080803573ffffffffffffffffffffffffffffffffffffffff169060200190929190505050610235565b005b6101206004803603604081101561009f57600080fd5b81019080803573ffffffffffffffffffffffffffffffffffffffff169060200190929190803590602001906401000000008111156100dc57600080fd5b8201836020820111156100ee57600080fd5b8035906020019184600183028401116401000000008311171561011057600080fd5b909192939192939050505061024e565b604051808215151515815260200191505060405180910390f35b61021b600480360360a081101561015057600080fd5b81019080803573ffffffffffffffffffffffffffffffffffffffff169060200190929190803573ffffffffffffffffffffffffffffffffffffffff16906020019092919080359060200190929190803573ffffffffffffffffffffffffffffffffffffffff169060200190929190803590602001906401000000008111156101d757600080fd5b8201836020820111156101e957600080fd5b8035906020019184600183028401116401000000008311171561020b57600080fd5b90919293919293905050506103e5565b604051808215151515815260200191505060405180910390f35b8073ffffffffffffffffffffffffffffffffffffffff16ff5b60008073ffffffffffffffffffffffffffffffffffffffff168473ffffffffffffffffffffffffffffffffffffffff1614156102f2576040517f08c379a00000000000000000000000000000000000000000000000000000000081526004018080602001828103825260148152602001807f44656c656761746520697320726571756972656400000000000000000000000081525060200191505060405180910390fd5b60008473ffffffffffffffffffffffffffffffffffffffff168484604051808383808284378083019250505092505050600060405180830381855af49150503d806000811461035d576040519150601f19603f3d011682016040523d82523d6000602084013e610362565b606091505b50509050806103d9576040517f08c379a00000000000000000000000000000000000000000000000000000000081526004018080602001828103825260148152602001807f44656c65676174652063616c6c206661696c656400000000000000000000000081525060200191505060405180910390fd5b60019150509392505050565b6000808790508073ffffffffffffffffffffffffffffffffffffffff1663a9059cbb88886040518363ffffffff1660e01b8152600401808373ffffffffffffffffffffffffffffffffffffffff1673ffffffffffffffffffffffffffffffffffffffff16815260200182815260200192505050602060405180830381600087803b15801561047257600080fd5b505af1158015610486573d6000803e3d6000fd5b505050506040513d602081101561049c57600080fd5b8101908080519060200190929190505050503073ffffffffffffffffffffffffffffffffffffffff1663ad50997e8686866040518463ffffffff1660e01b8152600401808473ffffffffffffffffffffffffffffffffffffffff1673ffffffffffffffffffffffffffffffffffffffff168152602001806020018281038252848482818152602001925080828437600081840152601f19601f820116905080830192505050945050505050602060405180830381600087803b15801561056157600080fd5b505af1158015610575573d6000803e3d6000fd5b505050506040513d602081101561058b57600080fd5b8101908080519060200190929190505050915050969550505050505056fea26469706673582212204496a86ff91269048145ea63196da155e2432402a29be6eaf83b7ddcbd558f3b64736f6c634300060a0033a264697066735822122079cd9106b6d75aeb42c37e84ecc7dce3b54d7ca329eeb45d7db67df5a7c660de64736f6c634300060a0033",
  "immutableReferences": {},
  "source": "pragma solidity 0.6.10;\n\n// SPDX-License-Identifier: MIT OR Apache-2.0\n\nimport \"@opengsn/gsn/contracts/BaseRelayRecipient.sol\";\nimport \"./IPaymentManager.sol\";\nimport \"./WalletSpender.sol\";\nimport \"./IWalletFactory.sol\";\n\n\ncontract WalletFactory is IWalletFactory, BaseRelayRecipient {\n    string public override versionRecipient = \"2.0.0\";\n    address public manager;\n    address public owner;\n\n    event Spend(address indexed _from, address indexed _delegate, address indexed feeReceiver, uint256 fee, uint256 salt);\n    event Addr(address indexed _addr, address indexed _sender);\n\n    constructor(address _forwarder, address _manager) public {\n\t\ttrustedForwarder = _forwarder;\n        manager = _manager;\n        owner = msg.sender;\n\t}\n\n    function setManager(address _manager) external override onlyOwner {\n        manager = _manager;\n    }\n    \n    function gaslessTransferToken(address _token, uint256 _salt, address _feeReceiver, uint256 _fee, address _delegate, bytes calldata _callData) external override {\n        bytes32 newsalt = keccak256(abi.encode(_msgSender(), _salt));\n\n        WalletSpender spender = new WalletSpender{salt: newsalt}();\n\n        require(IPaymentManager(manager).verify(_token, _delegate, _feeReceiver, _fee), \"Manager rejected call\");\n        spender.spendTokenWithFee(_token, _feeReceiver, _fee, _delegate, _callData);\n        spender.destroy(_msgSender());\n        emit Spend(address(spender), _delegate, _feeReceiver, _fee,  _salt);\n    }\n    \n    function transferToken(uint256 _salt, address _delegate, bytes calldata _callData) external override directCall {\n        bytes32 newsalt = keccak256(abi.encode(_msgSender(), _salt));\n        \n        WalletSpender spender = new WalletSpender{salt: newsalt}();\n        \n        spender.spendToken(_delegate, _callData);\n        spender.destroy(_msgSender());\n        emit Spend(address(spender), _delegate, address(0), 0,  _salt);\n    }\n    \n    function getAddress(uint256 _salt) external override directCall {\n        bytes32 newsalt = keccak256(abi.encode(_msgSender(), _salt));\n        \n        WalletSpender addr = new WalletSpender{salt: newsalt}();\n\n        emit Addr(address(addr), _msgSender());\n    }\n    \n    function calcSpenderAddress(uint256 salt) view external returns(address, address, address)  {\n        address predictedAddress = this.getGaslessAddress(_msgSender(), salt);\n        return (predictedAddress, address(this), _msgSender());\n    }\n    \n    function getGaslessAddress(address _sender, uint256 salt) view external override returns(address)  {\n        bytes32 newsalt = keccak256(abi.encode(_sender, salt));\n        address predictedAddress = address(uint160(uint(keccak256(abi.encodePacked(\n            bytes1(0xff),\n            address(this),\n            newsalt,\n            keccak256(type(WalletSpender).creationCode)\n        )))));\n        return predictedAddress;\n    }\n\n    function getCreationCode() pure external returns(bytes memory)  {\n        return type(WalletSpender).creationCode;\n    }\n    \n    function spendIt(address _spender, address _delegate, bytes calldata _callData) external override directCall {\n        WalletSpender spender = WalletSpender(_spender);\n        spender.spendToken(_delegate, _callData);\n        spender.destroy(_msgSender());\n        emit Spend(address(spender), _delegate, address(0), 0, 0);\n    }\n\n    modifier onlyOwner() {\n        require(owner == _msgSender(), \": caller is not the owner\");\n        _;\n    }\n    \n    modifier directCall() {\n        require(msg.sender == _msgSender(), \": caller is not the owner\");\n        _;\n    }\n}",
  "sourcePath": "/Users/hakeemorewole/projects/1aa/multisend/gasless/contracts/WalletFactory.sol",
  "compiler": {
    "name": "solc",
    "version": "0.6.10+commit.00c0fcaf.Emscripten.clang"
  },
  "schemaVersion": "3.2.3",
  "updatedAt": "2021-02-10T10:11:14.446Z",
  "devdoc": {
    "methods": {}
  },
  "userdoc": {
    "methods": {}
  }
}