{
  "contractName": "WalletPaymaster",
  "abi": [
    {
      "anonymous": false,
      "inputs": [
        {
          "indexed": true,
          "internalType": "address",
          "name": "previousOwner",
          "type": "address"
        },
        {
          "indexed": true,
          "internalType": "address",
          "name": "newOwner",
          "type": "address"
        }
      ],
      "name": "OwnershipTransferred",
      "type": "event"
    },
    {
      "anonymous": false,
      "inputs": [
        {
          "indexed": false,
          "internalType": "uint256",
          "name": "",
          "type": "uint256"
        }
      ],
      "name": "PostRelayed",
      "type": "event"
    },
    {
      "anonymous": false,
      "inputs": [
        {
          "indexed": false,
          "internalType": "uint256",
          "name": "",
          "type": "uint256"
        }
      ],
      "name": "PreRelayed",
      "type": "event"
    },
    {
      "anonymous": false,
      "inputs": [
        {
          "indexed": false,
          "internalType": "address",
          "name": "target",
          "type": "address"
        }
      ],
      "name": "TargetRemoved",
      "type": "event"
    },
    {
      "anonymous": false,
      "inputs": [
        {
          "indexed": false,
          "internalType": "address",
          "name": "target",
          "type": "address"
        }
      ],
      "name": "TargetSet",
      "type": "event"
    },
    {
      "inputs": [],
      "name": "FORWARDER_HUB_OVERHEAD",
      "outputs": [
        {
          "internalType": "uint256",
          "name": "",
          "type": "uint256"
        }
      ],
      "stateMutability": "view",
      "type": "function",
      "constant": true
    },
    {
      "inputs": [],
      "name": "PAYMASTER_ACCEPTANCE_BUDGET",
      "outputs": [
        {
          "internalType": "uint256",
          "name": "",
          "type": "uint256"
        }
      ],
      "stateMutability": "view",
      "type": "function",
      "constant": true
    },
    {
      "inputs": [],
      "name": "POST_RELAYED_CALL_GAS_LIMIT",
      "outputs": [
        {
          "internalType": "uint256",
          "name": "",
          "type": "uint256"
        }
      ],
      "stateMutability": "view",
      "type": "function",
      "constant": true
    },
    {
      "inputs": [],
      "name": "PRE_RELAYED_CALL_GAS_LIMIT",
      "outputs": [
        {
          "internalType": "uint256",
          "name": "",
          "type": "uint256"
        }
      ],
      "stateMutability": "view",
      "type": "function",
      "constant": true
    },
    {
      "inputs": [
        {
          "components": [
            {
              "components": [
                {
                  "internalType": "address",
                  "name": "from",
                  "type": "address"
                },
                {
                  "internalType": "address",
                  "name": "to",
                  "type": "address"
                },
                {
                  "internalType": "uint256",
                  "name": "value",
                  "type": "uint256"
                },
                {
                  "internalType": "uint256",
                  "name": "gas",
                  "type": "uint256"
                },
                {
                  "internalType": "uint256",
                  "name": "nonce",
                  "type": "uint256"
                },
                {
                  "internalType": "bytes",
                  "name": "data",
                  "type": "bytes"
                }
              ],
              "internalType": "struct IForwarder.ForwardRequest",
              "name": "request",
              "type": "tuple"
            },
            {
              "components": [
                {
                  "internalType": "uint256",
                  "name": "gasPrice",
                  "type": "uint256"
                },
                {
                  "internalType": "uint256",
                  "name": "pctRelayFee",
                  "type": "uint256"
                },
                {
                  "internalType": "uint256",
                  "name": "baseRelayFee",
                  "type": "uint256"
                },
                {
                  "internalType": "address",
                  "name": "relayWorker",
                  "type": "address"
                },
                {
                  "internalType": "address",
                  "name": "paymaster",
                  "type": "address"
                },
                {
                  "internalType": "bytes",
                  "name": "paymasterData",
                  "type": "bytes"
                },
                {
                  "internalType": "uint256",
                  "name": "clientId",
                  "type": "uint256"
                },
                {
                  "internalType": "address",
                  "name": "forwarder",
                  "type": "address"
                }
              ],
              "internalType": "struct GsnTypes.RelayData",
              "name": "relayData",
              "type": "tuple"
            }
          ],
          "internalType": "struct GsnTypes.RelayRequest",
          "name": "relayRequest",
          "type": "tuple"
        }
      ],
      "name": "_verifyForwarder",
      "outputs": [],
      "stateMutability": "view",
      "type": "function",
      "constant": true
    },
    {
      "inputs": [],
      "name": "getGasLimits",
      "outputs": [
        {
          "components": [
            {
              "internalType": "uint256",
              "name": "acceptanceBudget",
              "type": "uint256"
            },
            {
              "internalType": "uint256",
              "name": "preRelayedCallGasLimit",
              "type": "uint256"
            },
            {
              "internalType": "uint256",
              "name": "postRelayedCallGasLimit",
              "type": "uint256"
            }
          ],
          "internalType": "struct IPaymaster.GasLimits",
          "name": "limits",
          "type": "tuple"
        }
      ],
      "stateMutability": "view",
      "type": "function",
      "constant": true
    },
    {
      "inputs": [],
      "name": "getHubAddr",
      "outputs": [
        {
          "internalType": "address",
          "name": "",
          "type": "address"
        }
      ],
      "stateMutability": "view",
      "type": "function",
      "constant": true
    },
    {
      "inputs": [],
      "name": "getRelayHubDeposit",
      "outputs": [
        {
          "internalType": "uint256",
          "name": "",
          "type": "uint256"
        }
      ],
      "stateMutability": "view",
      "type": "function",
      "constant": true
    },
    {
      "inputs": [
        {
          "internalType": "address",
          "name": "",
          "type": "address"
        }
      ],
      "name": "ourTargets",
      "outputs": [
        {
          "internalType": "bool",
          "name": "",
          "type": "bool"
        }
      ],
      "stateMutability": "view",
      "type": "function",
      "constant": true
    },
    {
      "inputs": [],
      "name": "owner",
      "outputs": [
        {
          "internalType": "address",
          "name": "",
          "type": "address"
        }
      ],
      "stateMutability": "view",
      "type": "function",
      "constant": true
    },
    {
      "inputs": [],
      "name": "renounceOwnership",
      "outputs": [],
      "stateMutability": "nonpayable",
      "type": "function"
    },
    {
      "inputs": [
        {
          "internalType": "contract IRelayHub",
          "name": "hub",
          "type": "address"
        }
      ],
      "name": "setRelayHub",
      "outputs": [],
      "stateMutability": "nonpayable",
      "type": "function"
    },
    {
      "inputs": [
        {
          "internalType": "contract IForwarder",
          "name": "forwarder",
          "type": "address"
        }
      ],
      "name": "setTrustedForwarder",
      "outputs": [],
      "stateMutability": "nonpayable",
      "type": "function"
    },
    {
      "inputs": [
        {
          "internalType": "address",
          "name": "newOwner",
          "type": "address"
        }
      ],
      "name": "transferOwnership",
      "outputs": [],
      "stateMutability": "nonpayable",
      "type": "function"
    },
    {
      "inputs": [],
      "name": "trustedForwarder",
      "outputs": [
        {
          "internalType": "contract IForwarder",
          "name": "",
          "type": "address"
        }
      ],
      "stateMutability": "view",
      "type": "function",
      "constant": true
    },
    {
      "inputs": [
        {
          "internalType": "uint256",
          "name": "amount",
          "type": "uint256"
        },
        {
          "internalType": "address payable",
          "name": "target",
          "type": "address"
        }
      ],
      "name": "withdrawRelayHubDepositTo",
      "outputs": [],
      "stateMutability": "nonpayable",
      "type": "function"
    },
    {
      "stateMutability": "payable",
      "type": "receive",
      "payable": true
    },
    {
      "inputs": [
        {
          "internalType": "address",
          "name": "target",
          "type": "address"
        }
      ],
      "name": "setTarget",
      "outputs": [],
      "stateMutability": "nonpayable",
      "type": "function"
    },
    {
      "inputs": [
        {
          "internalType": "address",
          "name": "target",
          "type": "address"
        }
      ],
      "name": "removeTarget",
      "outputs": [],
      "stateMutability": "nonpayable",
      "type": "function"
    },
    {
      "inputs": [
        {
          "components": [
            {
              "components": [
                {
                  "internalType": "address",
                  "name": "from",
                  "type": "address"
                },
                {
                  "internalType": "address",
                  "name": "to",
                  "type": "address"
                },
                {
                  "internalType": "uint256",
                  "name": "value",
                  "type": "uint256"
                },
                {
                  "internalType": "uint256",
                  "name": "gas",
                  "type": "uint256"
                },
                {
                  "internalType": "uint256",
                  "name": "nonce",
                  "type": "uint256"
                },
                {
                  "internalType": "bytes",
                  "name": "data",
                  "type": "bytes"
                }
              ],
              "internalType": "struct IForwarder.ForwardRequest",
              "name": "request",
              "type": "tuple"
            },
            {
              "components": [
                {
                  "internalType": "uint256",
                  "name": "gasPrice",
                  "type": "uint256"
                },
                {
                  "internalType": "uint256",
                  "name": "pctRelayFee",
                  "type": "uint256"
                },
                {
                  "internalType": "uint256",
                  "name": "baseRelayFee",
                  "type": "uint256"
                },
                {
                  "internalType": "address",
                  "name": "relayWorker",
                  "type": "address"
                },
                {
                  "internalType": "address",
                  "name": "paymaster",
                  "type": "address"
                },
                {
                  "internalType": "bytes",
                  "name": "paymasterData",
                  "type": "bytes"
                },
                {
                  "internalType": "uint256",
                  "name": "clientId",
                  "type": "uint256"
                },
                {
                  "internalType": "address",
                  "name": "forwarder",
                  "type": "address"
                }
              ],
              "internalType": "struct GsnTypes.RelayData",
              "name": "relayData",
              "type": "tuple"
            }
          ],
          "internalType": "struct GsnTypes.RelayRequest",
          "name": "relayRequest",
          "type": "tuple"
        },
        {
          "internalType": "bytes",
          "name": "signature",
          "type": "bytes"
        },
        {
          "internalType": "bytes",
          "name": "approvalData",
          "type": "bytes"
        },
        {
          "internalType": "uint256",
          "name": "maxPossibleGas",
          "type": "uint256"
        }
      ],
      "name": "preRelayedCall",
      "outputs": [
        {
          "internalType": "bytes",
          "name": "context",
          "type": "bytes"
        },
        {
          "internalType": "bool",
          "name": "",
          "type": "bool"
        }
      ],
      "stateMutability": "nonpayable",
      "type": "function"
    },
    {
      "inputs": [
        {
          "internalType": "bytes",
          "name": "context",
          "type": "bytes"
        },
        {
          "internalType": "bool",
          "name": "success",
          "type": "bool"
        },
        {
          "internalType": "uint256",
          "name": "gasUseWithoutPost",
          "type": "uint256"
        },
        {
          "components": [
            {
              "internalType": "uint256",
              "name": "gasPrice",
              "type": "uint256"
            },
            {
              "internalType": "uint256",
              "name": "pctRelayFee",
              "type": "uint256"
            },
            {
              "internalType": "uint256",
              "name": "baseRelayFee",
              "type": "uint256"
            },
            {
              "internalType": "address",
              "name": "relayWorker",
              "type": "address"
            },
            {
              "internalType": "address",
              "name": "paymaster",
              "type": "address"
            },
            {
              "internalType": "bytes",
              "name": "paymasterData",
              "type": "bytes"
            },
            {
              "internalType": "uint256",
              "name": "clientId",
              "type": "uint256"
            },
            {
              "internalType": "address",
              "name": "forwarder",
              "type": "address"
            }
          ],
          "internalType": "struct GsnTypes.RelayData",
          "name": "relayData",
          "type": "tuple"
        }
      ],
      "name": "postRelayedCall",
      "outputs": [],
      "stateMutability": "nonpayable",
      "type": "function"
    },
    {
      "inputs": [],
      "name": "versionPaymaster",
      "outputs": [
        {
          "internalType": "string",
          "name": "",
          "type": "string"
        }
      ],
      "stateMutability": "view",
      "type": "function",
      "constant": true
    }
  ],
  "bytecode": "0x608060405234801561001057600080fd5b5060006100216100c460201b60201c565b9050806000806101000a81548173ffffffffffffffffffffffffffffffffffffffff021916908373ffffffffffffffffffffffffffffffffffffffff1602179055508073ffffffffffffffffffffffffffffffffffffffff16600073ffffffffffffffffffffffffffffffffffffffff167f8be0079c531659141344cd1fd0a4f28419497f9722a3daafe3b4186f6b6457e060405160405180910390a3506100cc565b600033905090565b6121b7806100db6000396000f3fe60806040526004361061012e5760003560e01c8063921276ea116100ab578063d5d7ff3c1161006f578063d5d7ff3c146104d3578063da742228146104fc578063df463a6614610525578063e5c1244614610550578063f2fde38b1461058e578063f9c002f7146105b757610255565b8063921276ea146103ec5780639225c730146104175780639ea0921114610454578063b90b41cf1461047d578063bbdaa3c9146104a857610255565b8063776d1a01116100f2578063776d1a011461031b5780637bb05264146103445780637da0a8771461036d5780638da5cb5b146103985780638e9483b0146103c357610255565b80632afe31c11461025a5780632d14c4b7146102855780635ea54eee146102ae578063715018a6146102d957806374e861d6146102f057610255565b3661025557600073ffffffffffffffffffffffffffffffffffffffff16600160009054906101000a900473ffffffffffffffffffffffffffffffffffffffff1673ffffffffffffffffffffffffffffffffffffffff1614156101c5576040517f08c379a00000000000000000000000000000000000000000000000000000000081526004016101bc90611e10565b60405180910390fd5b600160009054906101000a900473ffffffffffffffffffffffffffffffffffffffff1673ffffffffffffffffffffffffffffffffffffffff1663aa67c91934306040518363ffffffff1660e01b81526004016102219190611d2d565b6000604051808303818588803b15801561023a57600080fd5b505af115801561024e573d6000803e3d6000fd5b5050505050005b600080fd5b34801561026657600080fd5b5061026f6105e2565b60405161027c9190611f0b565b60405180910390f35b34801561029157600080fd5b506102ac60048036038101906102a791906118e5565b610694565b005b3480156102ba57600080fd5b506102c36107bc565b6040516102d09190611ef0565b60405180910390f35b3480156102e557600080fd5b506102ee6107f1565b005b3480156102fc57600080fd5b50610305610946565b6040516103129190611d12565b60405180910390f35b34801561032757600080fd5b50610342600480360381019061033d9190611663565b610970565b005b34801561035057600080fd5b5061036b60048036038101906103669190611776565b610b25565b005b34801561037957600080fd5b50610382610bff565b60405161038f9190611d93565b60405180910390f35b3480156103a457600080fd5b506103ad610c25565b6040516103ba9190611d12565b60405180910390f35b3480156103cf57600080fd5b506103ea60048036038101906103e591906116b5565b610c4e565b005b3480156103f857600080fd5b50610401610c9a565b60405161040e9190611dae565b60405180910390f35b34801561042357600080fd5b5061043e60048036038101906104399190611663565b610cd7565b60405161044b9190611d48565b60405180910390f35b34801561046057600080fd5b5061047b6004803603810190610476919061179f565b610cf7565b005b34801561048957600080fd5b50610492610db4565b60405161049f9190611f0b565b60405180910390f35b3480156104b457600080fd5b506104bd610dba565b6040516104ca9190611f0b565b60405180910390f35b3480156104df57600080fd5b506104fa60048036038101906104f59190611663565b610dc1565b005b34801561050857600080fd5b50610523600480360381019061051e919061174d565b610f75565b005b34801561053157600080fd5b5061053a61104f565b6040516105479190611f0b565b60405180910390f35b34801561055c57600080fd5b50610577600480360381019061057291906117e0565b61105a565b604051610585929190611d63565b60405180910390f35b34801561059a57600080fd5b506105b560048036038101906105b09190611663565b611145565b005b3480156105c357600080fd5b506105cc611309565b6040516105d99190611f0b565b60405180910390f35b6000600160009054906101000a900473ffffffffffffffffffffffffffffffffffffffff1673ffffffffffffffffffffffffffffffffffffffff166370a08231306040518263ffffffff1660e01b815260040161063f9190611d2d565b60206040518083038186803b15801561065757600080fd5b505afa15801561066b573d6000803e3d6000fd5b505050506040513d601f19601f8201168201806040525081019061068f91906118bc565b905090565b61069c611310565b73ffffffffffffffffffffffffffffffffffffffff166000809054906101000a900473ffffffffffffffffffffffffffffffffffffffff1673ffffffffffffffffffffffffffffffffffffffff161461072a576040517f08c379a000000000000000000000000000000000000000000000000000000000815260040161072190611ed0565b60405180910390fd5b600160009054906101000a900473ffffffffffffffffffffffffffffffffffffffff1673ffffffffffffffffffffffffffffffffffffffff1662f714ce83836040518363ffffffff1660e01b8152600401610786929190611f26565b600060405180830381600087803b1580156107a057600080fd5b505af11580156107b4573d6000803e3d6000fd5b505050505050565b6107c4611519565b604051806060016040528061c350620186a0018152602001620186a081526020016201adb0815250905090565b6107f9611310565b73ffffffffffffffffffffffffffffffffffffffff166000809054906101000a900473ffffffffffffffffffffffffffffffffffffffff1673ffffffffffffffffffffffffffffffffffffffff1614610887576040517f08c379a000000000000000000000000000000000000000000000000000000000815260040161087e90611ed0565b60405180910390fd5b600073ffffffffffffffffffffffffffffffffffffffff166000809054906101000a900473ffffffffffffffffffffffffffffffffffffffff1673ffffffffffffffffffffffffffffffffffffffff167f8be0079c531659141344cd1fd0a4f28419497f9722a3daafe3b4186f6b6457e060405160405180910390a360008060006101000a81548173ffffffffffffffffffffffffffffffffffffffff021916908373ffffffffffffffffffffffffffffffffffffffff160217905550565b6000600160009054906101000a900473ffffffffffffffffffffffffffffffffffffffff16905090565b610978611310565b73ffffffffffffffffffffffffffffffffffffffff166000809054906101000a900473ffffffffffffffffffffffffffffffffffffffff1673ffffffffffffffffffffffffffffffffffffffff1614610a06576040517f08c379a00000000000000000000000000000000000000000000000000000000081526004016109fd90611ed0565b60405180910390fd5b600360008273ffffffffffffffffffffffffffffffffffffffff1673ffffffffffffffffffffffffffffffffffffffff16815260200190815260200160002060009054906101000a900460ff1615610a93576040517f08c379a0000000000000000000000000000000000000000000000000000000008152600401610a8a90611eb0565b60405180910390fd5b6001600360008373ffffffffffffffffffffffffffffffffffffffff1673ffffffffffffffffffffffffffffffffffffffff16815260200190815260200160002060006101000a81548160ff0219169083151502179055507f3bfb4bbf112628248058745a3c57e35b13369386e474b8e56c552f3063a4a19681604051610b1a9190611d12565b60405180910390a150565b610b2d611310565b73ffffffffffffffffffffffffffffffffffffffff166000809054906101000a900473ffffffffffffffffffffffffffffffffffffffff1673ffffffffffffffffffffffffffffffffffffffff1614610bbb576040517f08c379a0000000000000000000000000000000000000000000000000000000008152600401610bb290611ed0565b60405180910390fd5b80600160006101000a81548173ffffffffffffffffffffffffffffffffffffffff021916908373ffffffffffffffffffffffffffffffffffffffff16021790555050565b600260009054906101000a900473ffffffffffffffffffffffffffffffffffffffff1681565b60008060009054906101000a900473ffffffffffffffffffffffffffffffffffffffff16905090565b7f142c6d2c03c5b3fcbb162bc0e230bbaae8c9032eb624a8fd44658e00efa63c908585810190610c7e9190611893565b604051610c8b9190611f0b565b60405180910390a15050505050565b60606040518060400160405280600581526020017f322e302e33000000000000000000000000000000000000000000000000000000815250905090565b60036020528060005260406000206000915054906101000a900460ff1681565b808060200190610d079190611f73565b60e0016020810190610d199190611663565b73ffffffffffffffffffffffffffffffffffffffff16600260009054906101000a900473ffffffffffffffffffffffffffffffffffffffff1673ffffffffffffffffffffffffffffffffffffffff1614610da8576040517f08c379a0000000000000000000000000000000000000000000000000000000008152600401610d9f90611e50565b60405180910390fd5b610db181611318565b50565b61c35081565b6201adb081565b610dc9611310565b73ffffffffffffffffffffffffffffffffffffffff166000809054906101000a900473ffffffffffffffffffffffffffffffffffffffff1673ffffffffffffffffffffffffffffffffffffffff1614610e57576040517f08c379a0000000000000000000000000000000000000000000000000000000008152600401610e4e90611ed0565b60405180910390fd5b600360008273ffffffffffffffffffffffffffffffffffffffff1673ffffffffffffffffffffffffffffffffffffffff16815260200190815260200160002060009054906101000a900460ff16610ee3576040517f08c379a0000000000000000000000000000000000000000000000000000000008152600401610eda90611eb0565b60405180910390fd5b6000600360008373ffffffffffffffffffffffffffffffffffffffff1673ffffffffffffffffffffffffffffffffffffffff16815260200190815260200160002060006101000a81548160ff0219169083151502179055507fe553c8d5c5394d64d3220f3548c51ee149f9d77f3052d1e18ce62f0926a1608081604051610f6a9190611d12565b60405180910390a150565b610f7d611310565b73ffffffffffffffffffffffffffffffffffffffff166000809054906101000a900473ffffffffffffffffffffffffffffffffffffffff1673ffffffffffffffffffffffffffffffffffffffff161461100b576040517f08c379a000000000000000000000000000000000000000000000000000000000815260040161100290611ed0565b60405180910390fd5b80600260006101000a81548173ffffffffffffffffffffffffffffffffffffffff021916908373ffffffffffffffffffffffffffffffffffffffff16021790555050565b61c350620186a00181565b6060600061106788610cf7565b6003600089806000019061107b9190611f4f565b602001602081019061108d9190611663565b73ffffffffffffffffffffffffffffffffffffffff1673ffffffffffffffffffffffffffffffffffffffff16815260200190815260200160002060009054906101000a900460ff16611114576040517f08c379a000000000000000000000000000000000000000000000000000000000815260040161110b90611e30565b60405180910390fd5b426040516020016111259190611f0b565b604051602081830303815290604052600191509150965096945050505050565b61114d611310565b73ffffffffffffffffffffffffffffffffffffffff166000809054906101000a900473ffffffffffffffffffffffffffffffffffffffff1673ffffffffffffffffffffffffffffffffffffffff16146111db576040517f08c379a00000000000000000000000000000000000000000000000000000000081526004016111d290611ed0565b60405180910390fd5b600073ffffffffffffffffffffffffffffffffffffffff168173ffffffffffffffffffffffffffffffffffffffff16141561124b576040517f08c379a000000000000000000000000000000000000000000000000000000000815260040161124290611df0565b60405180910390fd5b8073ffffffffffffffffffffffffffffffffffffffff166000809054906101000a900473ffffffffffffffffffffffffffffffffffffffff1673ffffffffffffffffffffffffffffffffffffffff167f8be0079c531659141344cd1fd0a4f28419497f9722a3daafe3b4186f6b6457e060405160405180910390a3806000806101000a81548173ffffffffffffffffffffffffffffffffffffffff021916908373ffffffffffffffffffffffffffffffffffffffff16021790555050565b620186a081565b600033905090565b6000606082806000019061132c9190611f4f565b602001602081019061133e9190611663565b73ffffffffffffffffffffffffffffffffffffffff1663572b6c0560e01b84806020019061136c9190611f73565b60e001602081019061137e9190611663565b60405160240161138e9190611d12565b604051602081830303815290604052907bffffffffffffffffffffffffffffffffffffffffffffffffffffffff19166020820180517bffffffffffffffffffffffffffffffffffffffffffffffffffffffff83818316178352505050506040516113f89190611cfb565b600060405180830381855afa9150503d8060008114611433576040519150601f19603f3d011682016040523d82523d6000602084013e611438565b606091505b50915091508161147d576040517f08c379a000000000000000000000000000000000000000000000000000000000815260040161147490611e90565b60405180910390fd5b60208151146114c1576040517f08c379a00000000000000000000000000000000000000000000000000000000081526004016114b890611e70565b60405180910390fd5b808060200190518101906114d5919061168c565b611514576040517f08c379a000000000000000000000000000000000000000000000000000000000815260040161150b90611dd0565b60405180910390fd5b505050565b60405180606001604052806000815260200160008152602001600081525090565b600081359050611549816120f7565b92915050565b60008135905061155e8161210e565b92915050565b60008135905061157381612125565b92915050565b60008151905061158881612125565b92915050565b60008083601f8401126115a057600080fd5b8235905067ffffffffffffffff8111156115b957600080fd5b6020830191508360018202830111156115d157600080fd5b9250929050565b6000813590506115e78161213c565b92915050565b6000813590506115fc81612153565b92915050565b6000610100828403121561161557600080fd5b81905092915050565b60006040828403121561163057600080fd5b81905092915050565b6000813590506116488161216a565b92915050565b60008151905061165d8161216a565b92915050565b60006020828403121561167557600080fd5b60006116838482850161153a565b91505092915050565b60006020828403121561169e57600080fd5b60006116ac84828501611579565b91505092915050565b6000806000806000608086880312156116cd57600080fd5b600086013567ffffffffffffffff8111156116e757600080fd5b6116f38882890161158e565b9550955050602061170688828901611564565b935050604061171788828901611639565b925050606086013567ffffffffffffffff81111561173457600080fd5b61174088828901611602565b9150509295509295909350565b60006020828403121561175f57600080fd5b600061176d848285016115d8565b91505092915050565b60006020828403121561178857600080fd5b6000611796848285016115ed565b91505092915050565b6000602082840312156117b157600080fd5b600082013567ffffffffffffffff8111156117cb57600080fd5b6117d78482850161161e565b91505092915050565b600080600080600080608087890312156117f957600080fd5b600087013567ffffffffffffffff81111561181357600080fd5b61181f89828a0161161e565b965050602087013567ffffffffffffffff81111561183c57600080fd5b61184889828a0161158e565b9550955050604087013567ffffffffffffffff81111561186757600080fd5b61187389828a0161158e565b9350935050606061188689828a01611639565b9150509295509295509295565b6000602082840312156118a557600080fd5b60006118b384828501611639565b91505092915050565b6000602082840312156118ce57600080fd5b60006118dc8482850161164e565b91505092915050565b600080604083850312156118f857600080fd5b600061190685828601611639565b92505060206119178582860161154f565b9150509250929050565b61192a81612059565b82525050565b61193981611fed565b82525050565b61194881611fdb565b82525050565b61195781611fff565b82525050565b600061196882611f98565b6119728185611fae565b93506119828185602086016120b3565b61198b816120e6565b840191505092915050565b60006119a182611f98565b6119ab8185611fbf565b93506119bb8185602086016120b3565b80840191505092915050565b6119d08161206b565b82525050565b60006119e182611fa3565b6119eb8185611fca565b93506119fb8185602086016120b3565b611a04816120e6565b840191505092915050565b6000611a1c601f83611fca565b91507f696e76616c696420666f7277617264657220666f7220726563697069656e74006000830152602082019050919050565b6000611a5c602683611fca565b91507f4f776e61626c653a206e6577206f776e657220697320746865207a65726f206160008301527f64647265737300000000000000000000000000000000000000000000000000006020830152604082019050919050565b6000611ac2601983611fca565b91507f72656c6179206875622061646472657373206e6f7420736574000000000000006000830152602082019050919050565b6000611b02601483611fca565b91507f546172676574206e6f7420737570706f727465640000000000000000000000006000830152602082019050919050565b6000611b42601883611fca565b91507f466f72776172646572206973206e6f74207472757374656400000000000000006000830152602082019050919050565b6000611b82602c83611fca565b91507f697354727573746564466f727761726465722072657475726e656420696e766160008301527f6c696420726573706f6e736500000000000000000000000000000000000000006020830152604082019050919050565b6000611be8601b83611fca565b91507f697354727573746564466f7277617264657220726576657274656400000000006000830152602082019050919050565b6000611c28601483611fca565b91507f54617267657420616c72656164792065786973740000000000000000000000006000830152602082019050919050565b6000611c68602083611fca565b91507f4f776e61626c653a2063616c6c6572206973206e6f7420746865206f776e65726000830152602082019050919050565b606082016000820151611cb16000850182611cdd565b506020820151611cc46020850182611cdd565b506040820151611cd76040850182611cdd565b50505050565b611ce68161204f565b82525050565b611cf58161204f565b82525050565b6000611d078284611996565b915081905092915050565b6000602082019050611d27600083018461193f565b92915050565b6000602082019050611d426000830184611921565b92915050565b6000602082019050611d5d600083018461194e565b92915050565b60006040820190508181036000830152611d7d818561195d565b9050611d8c602083018461194e565b9392505050565b6000602082019050611da860008301846119c7565b92915050565b60006020820190508181036000830152611dc881846119d6565b905092915050565b60006020820190508181036000830152611de981611a0f565b9050919050565b60006020820190508181036000830152611e0981611a4f565b9050919050565b60006020820190508181036000830152611e2981611ab5565b9050919050565b60006020820190508181036000830152611e4981611af5565b9050919050565b60006020820190508181036000830152611e6981611b35565b9050919050565b60006020820190508181036000830152611e8981611b75565b9050919050565b60006020820190508181036000830152611ea981611bdb565b9050919050565b60006020820190508181036000830152611ec981611c1b565b9050919050565b60006020820190508181036000830152611ee981611c5b565b9050919050565b6000606082019050611f056000830184611c9b565b92915050565b6000602082019050611f206000830184611cec565b92915050565b6000604082019050611f3b6000830185611cec565b611f486020830184611930565b9392505050565b60008235600160c003833603038112611f6757600080fd5b80830191505092915050565b60008235600161010003833603038112611f8c57600080fd5b80830191505092915050565b600081519050919050565b600081519050919050565b600082825260208201905092915050565b600081905092915050565b600082825260208201905092915050565b6000611fe68261202f565b9050919050565b6000611ff88261202f565b9050919050565b60008115159050919050565b600061201682611fdb565b9050919050565b600061202882611fdb565b9050919050565b600073ffffffffffffffffffffffffffffffffffffffff82169050919050565b6000819050919050565b60006120648261208f565b9050919050565b60006120768261207d565b9050919050565b60006120888261202f565b9050919050565b600061209a826120a1565b9050919050565b60006120ac8261202f565b9050919050565b60005b838110156120d15780820151818401526020810190506120b6565b838111156120e0576000848401525b50505050565b6000601f19601f8301169050919050565b61210081611fdb565b811461210b57600080fd5b50565b61211781611fed565b811461212257600080fd5b50565b61212e81611fff565b811461213957600080fd5b50565b6121458161200b565b811461215057600080fd5b50565b61215c8161201d565b811461216757600080fd5b50565b6121738161204f565b811461217e57600080fd5b5056fea264697066735822122038cda4d47cc367128c7c10f575ca98db08d913fa9e3191f38489a1f3b045063664736f6c634300060a0033",
  "immutableReferences": {},
  "source": "pragma solidity ^0.6.10;\npragma experimental ABIEncoderV2;\n\n// SPDX-License-Identifier: MIT OR Apache-2.0\n\nimport \"@opengsn/gsn/contracts/forwarder/IForwarder.sol\";\nimport \"@opengsn/gsn/contracts/BasePaymaster.sol\";\n\n\n\ncontract WalletPaymaster is BasePaymaster {\n    \n\tmapping(address => bool) public ourTargets;\n\n\tevent TargetSet(address target);\n\tevent TargetRemoved(address target);\n\t\n\tfunction setTarget(address target) external onlyOwner {\n\t\trequire(!ourTargets[target], \"Target already exist\");\n\t\tourTargets[target] = true;\n\t\temit TargetSet(target);\n\t}\n\n\tfunction removeTarget(address target) external onlyOwner {\n\t\trequire(ourTargets[target], \"Target already exist\");\n\t\tourTargets[target] = false;\n\t\temit TargetRemoved(target);\n\t}\n\n\tevent PreRelayed(uint);\n\tevent PostRelayed(uint);\n\n\tfunction preRelayedCall(\n\t\tGsnTypes.RelayRequest calldata relayRequest,\n\t\tbytes calldata signature,\n\t\tbytes calldata approvalData,\n\t\tuint256 maxPossibleGas\n\t) external override virtual\n\treturns (bytes memory context, bool) {\n\t\t_verifyForwarder(relayRequest);\n\t\t(signature, approvalData, maxPossibleGas);\n\t\trequire(ourTargets[relayRequest.request.to], \"Target not supported\");\n        return (abi.encode(now), true);\n\t}\n\n\tfunction postRelayedCall(\n\t\tbytes calldata context,\n\t\tbool success,\n\t\tuint256 gasUseWithoutPost,\n\t\tGsnTypes.RelayData calldata relayData\n\t) external override virtual {\n                (context, success, gasUseWithoutPost, relayData);\n\t\temit PostRelayed(abi.decode(context, (uint)));\n\t}\n\n  function versionPaymaster() external virtual view override returns (string memory) {\n    return \"2.0.3\";\n  }\n\n}",
  "sourcePath": "/Users/hakeemorewole/projects/1aa/multisend/gasless/contracts/WalletPaymaster.sol",
  "compiler": {
    "name": "solc",
    "version": "0.6.10+commit.00c0fcaf.Emscripten.clang"
  },
  "schemaVersion": "3.2.3",
  "updatedAt": "2021-02-09T13:35:09.633Z",
  "networkType": "ethereum",
  "devdoc": {
    "methods": {
      "owner()": {
        "details": "Returns the address of the current owner."
      },
      "renounceOwnership()": {
        "details": "Leaves the contract without owner. It will not be possible to call `onlyOwner` functions anymore. Can only be called by the current owner. NOTE: Renouncing ownership will leave the contract without an owner, thereby removing any functionality that is only available to the owner."
      },
      "transferOwnership(address)": {
        "details": "Transfers ownership of the contract to a new account (`newOwner`). Can only be called by the current owner."
      }
    }
  },
  "userdoc": {
    "methods": {
      "getRelayHubDeposit()": {
        "notice": "check current deposit on relay hub."
      },
      "withdrawRelayHubDepositTo(uint256,address)": {
        "notice": "withdraw deposit from relayHub"
      }
    }
  }
}