{
  "contractName": "NaivePaymaster",
  "abi": [
    {
      "anonymous": false,
      "inputs": [
        {
          "indexed": true,
          "internalType": "address",
          "name": "previousOwner",
          "type": "address"
        },
        {
          "indexed": true,
          "internalType": "address",
          "name": "newOwner",
          "type": "address"
        }
      ],
      "name": "OwnershipTransferred",
      "type": "event"
    },
    {
      "anonymous": false,
      "inputs": [
        {
          "indexed": false,
          "internalType": "uint256",
          "name": "",
          "type": "uint256"
        }
      ],
      "name": "PostRelayed",
      "type": "event"
    },
    {
      "anonymous": false,
      "inputs": [
        {
          "indexed": false,
          "internalType": "uint256",
          "name": "",
          "type": "uint256"
        }
      ],
      "name": "PreRelayed",
      "type": "event"
    },
    {
      "anonymous": false,
      "inputs": [
        {
          "indexed": false,
          "internalType": "address",
          "name": "target",
          "type": "address"
        }
      ],
      "name": "TargetSet",
      "type": "event"
    },
    {
      "inputs": [],
      "name": "FORWARDER_HUB_OVERHEAD",
      "outputs": [
        {
          "internalType": "uint256",
          "name": "",
          "type": "uint256"
        }
      ],
      "stateMutability": "view",
      "type": "function"
    },
    {
      "inputs": [],
      "name": "PAYMASTER_ACCEPTANCE_BUDGET",
      "outputs": [
        {
          "internalType": "uint256",
          "name": "",
          "type": "uint256"
        }
      ],
      "stateMutability": "view",
      "type": "function"
    },
    {
      "inputs": [],
      "name": "POST_RELAYED_CALL_GAS_LIMIT",
      "outputs": [
        {
          "internalType": "uint256",
          "name": "",
          "type": "uint256"
        }
      ],
      "stateMutability": "view",
      "type": "function"
    },
    {
      "inputs": [],
      "name": "PRE_RELAYED_CALL_GAS_LIMIT",
      "outputs": [
        {
          "internalType": "uint256",
          "name": "",
          "type": "uint256"
        }
      ],
      "stateMutability": "view",
      "type": "function"
    },
    {
      "inputs": [
        {
          "components": [
            {
              "components": [
                {
                  "internalType": "address",
                  "name": "from",
                  "type": "address"
                },
                {
                  "internalType": "address",
                  "name": "to",
                  "type": "address"
                },
                {
                  "internalType": "uint256",
                  "name": "value",
                  "type": "uint256"
                },
                {
                  "internalType": "uint256",
                  "name": "gas",
                  "type": "uint256"
                },
                {
                  "internalType": "uint256",
                  "name": "nonce",
                  "type": "uint256"
                },
                {
                  "internalType": "bytes",
                  "name": "data",
                  "type": "bytes"
                }
              ],
              "internalType": "struct IForwarder.ForwardRequest",
              "name": "request",
              "type": "tuple"
            },
            {
              "components": [
                {
                  "internalType": "uint256",
                  "name": "gasPrice",
                  "type": "uint256"
                },
                {
                  "internalType": "uint256",
                  "name": "pctRelayFee",
                  "type": "uint256"
                },
                {
                  "internalType": "uint256",
                  "name": "baseRelayFee",
                  "type": "uint256"
                },
                {
                  "internalType": "address",
                  "name": "relayWorker",
                  "type": "address"
                },
                {
                  "internalType": "address",
                  "name": "paymaster",
                  "type": "address"
                },
                {
                  "internalType": "bytes",
                  "name": "paymasterData",
                  "type": "bytes"
                },
                {
                  "internalType": "uint256",
                  "name": "clientId",
                  "type": "uint256"
                },
                {
                  "internalType": "address",
                  "name": "forwarder",
                  "type": "address"
                }
              ],
              "internalType": "struct GsnTypes.RelayData",
              "name": "relayData",
              "type": "tuple"
            }
          ],
          "internalType": "struct GsnTypes.RelayRequest",
          "name": "relayRequest",
          "type": "tuple"
        }
      ],
      "name": "_verifyForwarder",
      "outputs": [],
      "stateMutability": "view",
      "type": "function"
    },
    {
      "inputs": [],
      "name": "getGasLimits",
      "outputs": [
        {
          "components": [
            {
              "internalType": "uint256",
              "name": "acceptanceBudget",
              "type": "uint256"
            },
            {
              "internalType": "uint256",
              "name": "preRelayedCallGasLimit",
              "type": "uint256"
            },
            {
              "internalType": "uint256",
              "name": "postRelayedCallGasLimit",
              "type": "uint256"
            }
          ],
          "internalType": "struct IPaymaster.GasLimits",
          "name": "limits",
          "type": "tuple"
        }
      ],
      "stateMutability": "view",
      "type": "function"
    },
    {
      "inputs": [],
      "name": "getHubAddr",
      "outputs": [
        {
          "internalType": "address",
          "name": "",
          "type": "address"
        }
      ],
      "stateMutability": "view",
      "type": "function"
    },
    {
      "inputs": [],
      "name": "getRelayHubDeposit",
      "outputs": [
        {
          "internalType": "uint256",
          "name": "",
          "type": "uint256"
        }
      ],
      "stateMutability": "view",
      "type": "function"
    },
    {
      "inputs": [],
      "name": "ourTarget",
      "outputs": [
        {
          "internalType": "address",
          "name": "",
          "type": "address"
        }
      ],
      "stateMutability": "view",
      "type": "function"
    },
    {
      "inputs": [],
      "name": "owner",
      "outputs": [
        {
          "internalType": "address",
          "name": "",
          "type": "address"
        }
      ],
      "stateMutability": "view",
      "type": "function"
    },
    {
      "inputs": [],
      "name": "renounceOwnership",
      "outputs": [],
      "stateMutability": "nonpayable",
      "type": "function"
    },
    {
      "inputs": [
        {
          "internalType": "contract IRelayHub",
          "name": "hub",
          "type": "address"
        }
      ],
      "name": "setRelayHub",
      "outputs": [],
      "stateMutability": "nonpayable",
      "type": "function"
    },
    {
      "inputs": [
        {
          "internalType": "contract IForwarder",
          "name": "forwarder",
          "type": "address"
        }
      ],
      "name": "setTrustedForwarder",
      "outputs": [],
      "stateMutability": "nonpayable",
      "type": "function"
    },
    {
      "inputs": [
        {
          "internalType": "address",
          "name": "newOwner",
          "type": "address"
        }
      ],
      "name": "transferOwnership",
      "outputs": [],
      "stateMutability": "nonpayable",
      "type": "function"
    },
    {
      "inputs": [],
      "name": "trustedForwarder",
      "outputs": [
        {
          "internalType": "contract IForwarder",
          "name": "",
          "type": "address"
        }
      ],
      "stateMutability": "view",
      "type": "function"
    },
    {
      "inputs": [
        {
          "internalType": "uint256",
          "name": "amount",
          "type": "uint256"
        },
        {
          "internalType": "address payable",
          "name": "target",
          "type": "address"
        }
      ],
      "name": "withdrawRelayHubDepositTo",
      "outputs": [],
      "stateMutability": "nonpayable",
      "type": "function"
    },
    {
      "stateMutability": "payable",
      "type": "receive"
    },
    {
      "inputs": [
        {
          "internalType": "address",
          "name": "target",
          "type": "address"
        }
      ],
      "name": "setTarget",
      "outputs": [],
      "stateMutability": "nonpayable",
      "type": "function"
    },
    {
      "inputs": [
        {
          "components": [
            {
              "components": [
                {
                  "internalType": "address",
                  "name": "from",
                  "type": "address"
                },
                {
                  "internalType": "address",
                  "name": "to",
                  "type": "address"
                },
                {
                  "internalType": "uint256",
                  "name": "value",
                  "type": "uint256"
                },
                {
                  "internalType": "uint256",
                  "name": "gas",
                  "type": "uint256"
                },
                {
                  "internalType": "uint256",
                  "name": "nonce",
                  "type": "uint256"
                },
                {
                  "internalType": "bytes",
                  "name": "data",
                  "type": "bytes"
                }
              ],
              "internalType": "struct IForwarder.ForwardRequest",
              "name": "request",
              "type": "tuple"
            },
            {
              "components": [
                {
                  "internalType": "uint256",
                  "name": "gasPrice",
                  "type": "uint256"
                },
                {
                  "internalType": "uint256",
                  "name": "pctRelayFee",
                  "type": "uint256"
                },
                {
                  "internalType": "uint256",
                  "name": "baseRelayFee",
                  "type": "uint256"
                },
                {
                  "internalType": "address",
                  "name": "relayWorker",
                  "type": "address"
                },
                {
                  "internalType": "address",
                  "name": "paymaster",
                  "type": "address"
                },
                {
                  "internalType": "bytes",
                  "name": "paymasterData",
                  "type": "bytes"
                },
                {
                  "internalType": "uint256",
                  "name": "clientId",
                  "type": "uint256"
                },
                {
                  "internalType": "address",
                  "name": "forwarder",
                  "type": "address"
                }
              ],
              "internalType": "struct GsnTypes.RelayData",
              "name": "relayData",
              "type": "tuple"
            }
          ],
          "internalType": "struct GsnTypes.RelayRequest",
          "name": "relayRequest",
          "type": "tuple"
        },
        {
          "internalType": "bytes",
          "name": "signature",
          "type": "bytes"
        },
        {
          "internalType": "bytes",
          "name": "approvalData",
          "type": "bytes"
        },
        {
          "internalType": "uint256",
          "name": "maxPossibleGas",
          "type": "uint256"
        }
      ],
      "name": "preRelayedCall",
      "outputs": [
        {
          "internalType": "bytes",
          "name": "context",
          "type": "bytes"
        },
        {
          "internalType": "bool",
          "name": "",
          "type": "bool"
        }
      ],
      "stateMutability": "nonpayable",
      "type": "function"
    },
    {
      "inputs": [
        {
          "internalType": "bytes",
          "name": "context",
          "type": "bytes"
        },
        {
          "internalType": "bool",
          "name": "success",
          "type": "bool"
        },
        {
          "internalType": "uint256",
          "name": "gasUseWithoutPost",
          "type": "uint256"
        },
        {
          "components": [
            {
              "internalType": "uint256",
              "name": "gasPrice",
              "type": "uint256"
            },
            {
              "internalType": "uint256",
              "name": "pctRelayFee",
              "type": "uint256"
            },
            {
              "internalType": "uint256",
              "name": "baseRelayFee",
              "type": "uint256"
            },
            {
              "internalType": "address",
              "name": "relayWorker",
              "type": "address"
            },
            {
              "internalType": "address",
              "name": "paymaster",
              "type": "address"
            },
            {
              "internalType": "bytes",
              "name": "paymasterData",
              "type": "bytes"
            },
            {
              "internalType": "uint256",
              "name": "clientId",
              "type": "uint256"
            },
            {
              "internalType": "address",
              "name": "forwarder",
              "type": "address"
            }
          ],
          "internalType": "struct GsnTypes.RelayData",
          "name": "relayData",
          "type": "tuple"
        }
      ],
      "name": "postRelayedCall",
      "outputs": [],
      "stateMutability": "nonpayable",
      "type": "function"
    },
    {
      "inputs": [],
      "name": "versionPaymaster",
      "outputs": [
        {
          "internalType": "string",
          "name": "",
          "type": "string"
        }
      ],
      "stateMutability": "view",
      "type": "function"
    }
  ],
  "bytecode": "0x608060405234801561001057600080fd5b5060006100216100c460201b60201c565b9050806000806101000a81548173ffffffffffffffffffffffffffffffffffffffff021916908373ffffffffffffffffffffffffffffffffffffffff1602179055508073ffffffffffffffffffffffffffffffffffffffff16600073ffffffffffffffffffffffffffffffffffffffff167f8be0079c531659141344cd1fd0a4f28419497f9722a3daafe3b4186f6b6457e060405160405180910390a3506100cc565b600033905090565b611e49806100db6000396000f3fe6080604052600436106101235760003560e01c80638e9483b0116100a0578063da74222811610064578063da742228146104b6578063df463a66146104df578063e5c124461461050a578063f2fde38b14610548578063f9c002f7146105715761024a565b80638e9483b0146103e3578063921276ea1461040c5780639ea0921114610437578063b90b41cf14610460578063bbdaa3c91461048b5761024a565b8063776d1a01116100e7578063776d1a01146103105780637bb05264146103395780637da0a8771461036257806380d324f11461038d5780638da5cb5b146103b85761024a565b80632afe31c11461024f5780632d14c4b71461027a5780635ea54eee146102a3578063715018a6146102ce57806374e861d6146102e55761024a565b3661024a57600073ffffffffffffffffffffffffffffffffffffffff16600160009054906101000a900473ffffffffffffffffffffffffffffffffffffffff1673ffffffffffffffffffffffffffffffffffffffff1614156101ba576040517f08c379a00000000000000000000000000000000000000000000000000000000081526004016101b190611ae2565b60405180910390fd5b600160009054906101000a900473ffffffffffffffffffffffffffffffffffffffff1673ffffffffffffffffffffffffffffffffffffffff1663aa67c91934306040518363ffffffff1660e01b81526004016102169190611a1a565b6000604051808303818588803b15801561022f57600080fd5b505af1158015610243573d6000803e3d6000fd5b5050505050005b600080fd5b34801561025b57600080fd5b5061026461059c565b6040516102719190611b9d565b60405180910390f35b34801561028657600080fd5b506102a1600480360381019061029c9190611652565b61064e565b005b3480156102af57600080fd5b506102b8610776565b6040516102c59190611b82565b60405180910390f35b3480156102da57600080fd5b506102e36107ab565b005b3480156102f157600080fd5b506102fa610900565b60405161030791906119ff565b60405180910390f35b34801561031c57600080fd5b50610337600480360381019061033291906113d0565b61092a565b005b34801561034557600080fd5b50610360600480360381019061035b91906114e3565b610a3b565b005b34801561036e57600080fd5b50610377610b15565b6040516103849190611a65565b60405180910390f35b34801561039957600080fd5b506103a2610b3b565b6040516103af91906119ff565b60405180910390f35b3480156103c457600080fd5b506103cd610b61565b6040516103da91906119ff565b60405180910390f35b3480156103ef57600080fd5b5061040a60048036038101906104059190611422565b610b8a565b005b34801561041857600080fd5b50610421610bd6565b60405161042e9190611a80565b60405180910390f35b34801561044357600080fd5b5061045e6004803603810190610459919061150c565b610c13565b005b34801561046c57600080fd5b50610475610cd0565b6040516104829190611b9d565b60405180910390f35b34801561049757600080fd5b506104a0610cd6565b6040516104ad9190611b9d565b60405180910390f35b3480156104c257600080fd5b506104dd60048036038101906104d891906114ba565b610cdd565b005b3480156104eb57600080fd5b506104f4610db7565b6040516105019190611b9d565b60405180910390f35b34801561051657600080fd5b50610531600480360381019061052c919061154d565b610dc2565b60405161053f929190611a35565b60405180910390f35b34801561055457600080fd5b5061056f600480360381019061056a91906113d0565b610eb2565b005b34801561057d57600080fd5b50610586611076565b6040516105939190611b9d565b60405180910390f35b6000600160009054906101000a900473ffffffffffffffffffffffffffffffffffffffff1673ffffffffffffffffffffffffffffffffffffffff166370a08231306040518263ffffffff1660e01b81526004016105f99190611a1a565b60206040518083038186803b15801561061157600080fd5b505afa158015610625573d6000803e3d6000fd5b505050506040513d601f19601f820116820180604052508101906106499190611629565b905090565b61065661107d565b73ffffffffffffffffffffffffffffffffffffffff166000809054906101000a900473ffffffffffffffffffffffffffffffffffffffff1673ffffffffffffffffffffffffffffffffffffffff16146106e4576040517f08c379a00000000000000000000000000000000000000000000000000000000081526004016106db90611b62565b60405180910390fd5b600160009054906101000a900473ffffffffffffffffffffffffffffffffffffffff1673ffffffffffffffffffffffffffffffffffffffff1662f714ce83836040518363ffffffff1660e01b8152600401610740929190611bb8565b600060405180830381600087803b15801561075a57600080fd5b505af115801561076e573d6000803e3d6000fd5b505050505050565b61077e611286565b604051806060016040528061c350620186a0018152602001620186a081526020016201adb0815250905090565b6107b361107d565b73ffffffffffffffffffffffffffffffffffffffff166000809054906101000a900473ffffffffffffffffffffffffffffffffffffffff1673ffffffffffffffffffffffffffffffffffffffff1614610841576040517f08c379a000000000000000000000000000000000000000000000000000000000815260040161083890611b62565b60405180910390fd5b600073ffffffffffffffffffffffffffffffffffffffff166000809054906101000a900473ffffffffffffffffffffffffffffffffffffffff1673ffffffffffffffffffffffffffffffffffffffff167f8be0079c531659141344cd1fd0a4f28419497f9722a3daafe3b4186f6b6457e060405160405180910390a360008060006101000a81548173ffffffffffffffffffffffffffffffffffffffff021916908373ffffffffffffffffffffffffffffffffffffffff160217905550565b6000600160009054906101000a900473ffffffffffffffffffffffffffffffffffffffff16905090565b61093261107d565b73ffffffffffffffffffffffffffffffffffffffff166000809054906101000a900473ffffffffffffffffffffffffffffffffffffffff1673ffffffffffffffffffffffffffffffffffffffff16146109c0576040517f08c379a00000000000000000000000000000000000000000000000000000000081526004016109b790611b62565b60405180910390fd5b80600360006101000a81548173ffffffffffffffffffffffffffffffffffffffff021916908373ffffffffffffffffffffffffffffffffffffffff1602179055507f3bfb4bbf112628248058745a3c57e35b13369386e474b8e56c552f3063a4a19681604051610a3091906119ff565b60405180910390a150565b610a4361107d565b73ffffffffffffffffffffffffffffffffffffffff166000809054906101000a900473ffffffffffffffffffffffffffffffffffffffff1673ffffffffffffffffffffffffffffffffffffffff1614610ad1576040517f08c379a0000000000000000000000000000000000000000000000000000000008152600401610ac890611b62565b60405180910390fd5b80600160006101000a81548173ffffffffffffffffffffffffffffffffffffffff021916908373ffffffffffffffffffffffffffffffffffffffff16021790555050565b600260009054906101000a900473ffffffffffffffffffffffffffffffffffffffff1681565b600360009054906101000a900473ffffffffffffffffffffffffffffffffffffffff1681565b60008060009054906101000a900473ffffffffffffffffffffffffffffffffffffffff16905090565b7f142c6d2c03c5b3fcbb162bc0e230bbaae8c9032eb624a8fd44658e00efa63c908585810190610bba9190611600565b604051610bc79190611b9d565b60405180910390a15050505050565b60606040518060400160405280600581526020017f322e302e33000000000000000000000000000000000000000000000000000000815250905090565b808060200190610c239190611c05565b60e0016020810190610c3591906113d0565b73ffffffffffffffffffffffffffffffffffffffff16600260009054906101000a900473ffffffffffffffffffffffffffffffffffffffff1673ffffffffffffffffffffffffffffffffffffffff1614610cc4576040517f08c379a0000000000000000000000000000000000000000000000000000000008152600401610cbb90611b02565b60405180910390fd5b610ccd81611085565b50565b61c35081565b6201adb081565b610ce561107d565b73ffffffffffffffffffffffffffffffffffffffff166000809054906101000a900473ffffffffffffffffffffffffffffffffffffffff1673ffffffffffffffffffffffffffffffffffffffff1614610d73576040517f08c379a0000000000000000000000000000000000000000000000000000000008152600401610d6a90611b62565b60405180910390fd5b80600260006101000a81548173ffffffffffffffffffffffffffffffffffffffff021916908373ffffffffffffffffffffffffffffffffffffffff16021790555050565b61c350620186a00181565b60606000610dcf88610c13565b600360009054906101000a900473ffffffffffffffffffffffffffffffffffffffff1673ffffffffffffffffffffffffffffffffffffffff16888060000190610e189190611be1565b6020016020810190610e2a91906113d0565b73ffffffffffffffffffffffffffffffffffffffff1614610e4a57600080fd5b7f1fab8d24eefec3578055fc7f1c7cce1b10153c6731e0b5ca8147e8916d884b4542604051610e799190611b9d565b60405180910390a142604051602001610e929190611b9d565b604051602081830303815290604052600091509150965096945050505050565b610eba61107d565b73ffffffffffffffffffffffffffffffffffffffff166000809054906101000a900473ffffffffffffffffffffffffffffffffffffffff1673ffffffffffffffffffffffffffffffffffffffff1614610f48576040517f08c379a0000000000000000000000000000000000000000000000000000000008152600401610f3f90611b62565b60405180910390fd5b600073ffffffffffffffffffffffffffffffffffffffff168173ffffffffffffffffffffffffffffffffffffffff161415610fb8576040517f08c379a0000000000000000000000000000000000000000000000000000000008152600401610faf90611ac2565b60405180910390fd5b8073ffffffffffffffffffffffffffffffffffffffff166000809054906101000a900473ffffffffffffffffffffffffffffffffffffffff1673ffffffffffffffffffffffffffffffffffffffff167f8be0079c531659141344cd1fd0a4f28419497f9722a3daafe3b4186f6b6457e060405160405180910390a3806000806101000a81548173ffffffffffffffffffffffffffffffffffffffff021916908373ffffffffffffffffffffffffffffffffffffffff16021790555050565b620186a081565b600033905090565b600060608280600001906110999190611be1565b60200160208101906110ab91906113d0565b73ffffffffffffffffffffffffffffffffffffffff1663572b6c0560e01b8480602001906110d99190611c05565b60e00160208101906110eb91906113d0565b6040516024016110fb91906119ff565b604051602081830303815290604052907bffffffffffffffffffffffffffffffffffffffffffffffffffffffff19166020820180517bffffffffffffffffffffffffffffffffffffffffffffffffffffffff838183161783525050505060405161116591906119e8565b600060405180830381855afa9150503d80600081146111a0576040519150601f19603f3d011682016040523d82523d6000602084013e6111a5565b606091505b5091509150816111ea576040517f08c379a00000000000000000000000000000000000000000000000000000000081526004016111e190611b42565b60405180910390fd5b602081511461122e576040517f08c379a000000000000000000000000000000000000000000000000000000000815260040161122590611b22565b60405180910390fd5b8080602001905181019061124291906113f9565b611281576040517f08c379a000000000000000000000000000000000000000000000000000000000815260040161127890611aa2565b60405180910390fd5b505050565b60405180606001604052806000815260200160008152602001600081525090565b6000813590506112b681611d89565b92915050565b6000813590506112cb81611da0565b92915050565b6000813590506112e081611db7565b92915050565b6000815190506112f581611db7565b92915050565b60008083601f84011261130d57600080fd5b8235905067ffffffffffffffff81111561132657600080fd5b60208301915083600182028301111561133e57600080fd5b9250929050565b60008135905061135481611dce565b92915050565b60008135905061136981611de5565b92915050565b6000610100828403121561138257600080fd5b81905092915050565b60006040828403121561139d57600080fd5b81905092915050565b6000813590506113b581611dfc565b92915050565b6000815190506113ca81611dfc565b92915050565b6000602082840312156113e257600080fd5b60006113f0848285016112a7565b91505092915050565b60006020828403121561140b57600080fd5b6000611419848285016112e6565b91505092915050565b60008060008060006080868803121561143a57600080fd5b600086013567ffffffffffffffff81111561145457600080fd5b611460888289016112fb565b95509550506020611473888289016112d1565b9350506040611484888289016113a6565b925050606086013567ffffffffffffffff8111156114a157600080fd5b6114ad8882890161136f565b9150509295509295909350565b6000602082840312156114cc57600080fd5b60006114da84828501611345565b91505092915050565b6000602082840312156114f557600080fd5b60006115038482850161135a565b91505092915050565b60006020828403121561151e57600080fd5b600082013567ffffffffffffffff81111561153857600080fd5b6115448482850161138b565b91505092915050565b6000806000806000806080878903121561156657600080fd5b600087013567ffffffffffffffff81111561158057600080fd5b61158c89828a0161138b565b965050602087013567ffffffffffffffff8111156115a957600080fd5b6115b589828a016112fb565b9550955050604087013567ffffffffffffffff8111156115d457600080fd5b6115e089828a016112fb565b935093505060606115f389828a016113a6565b9150509295509295509295565b60006020828403121561161257600080fd5b6000611620848285016113a6565b91505092915050565b60006020828403121561163b57600080fd5b6000611649848285016113bb565b91505092915050565b6000806040838503121561166557600080fd5b6000611673858286016113a6565b9250506020611684858286016112bc565b9150509250929050565b61169781611ceb565b82525050565b6116a681611c7f565b82525050565b6116b581611c6d565b82525050565b6116c481611c91565b82525050565b60006116d582611c2a565b6116df8185611c40565b93506116ef818560208601611d45565b6116f881611d78565b840191505092915050565b600061170e82611c2a565b6117188185611c51565b9350611728818560208601611d45565b80840191505092915050565b61173d81611cfd565b82525050565b600061174e82611c35565b6117588185611c5c565b9350611768818560208601611d45565b61177181611d78565b840191505092915050565b6000611789601f83611c5c565b91507f696e76616c696420666f7277617264657220666f7220726563697069656e74006000830152602082019050919050565b60006117c9602683611c5c565b91507f4f776e61626c653a206e6577206f776e657220697320746865207a65726f206160008301527f64647265737300000000000000000000000000000000000000000000000000006020830152604082019050919050565b600061182f601983611c5c565b91507f72656c6179206875622061646472657373206e6f7420736574000000000000006000830152602082019050919050565b600061186f601883611c5c565b91507f466f72776172646572206973206e6f74207472757374656400000000000000006000830152602082019050919050565b60006118af602c83611c5c565b91507f697354727573746564466f727761726465722072657475726e656420696e766160008301527f6c696420726573706f6e736500000000000000000000000000000000000000006020830152604082019050919050565b6000611915601b83611c5c565b91507f697354727573746564466f7277617264657220726576657274656400000000006000830152602082019050919050565b6000611955602083611c5c565b91507f4f776e61626c653a2063616c6c6572206973206e6f7420746865206f776e65726000830152602082019050919050565b60608201600082015161199e60008501826119ca565b5060208201516119b160208501826119ca565b5060408201516119c460408501826119ca565b50505050565b6119d381611ce1565b82525050565b6119e281611ce1565b82525050565b60006119f48284611703565b915081905092915050565b6000602082019050611a1460008301846116ac565b92915050565b6000602082019050611a2f600083018461168e565b92915050565b60006040820190508181036000830152611a4f81856116ca565b9050611a5e60208301846116bb565b9392505050565b6000602082019050611a7a6000830184611734565b92915050565b60006020820190508181036000830152611a9a8184611743565b905092915050565b60006020820190508181036000830152611abb8161177c565b9050919050565b60006020820190508181036000830152611adb816117bc565b9050919050565b60006020820190508181036000830152611afb81611822565b9050919050565b60006020820190508181036000830152611b1b81611862565b9050919050565b60006020820190508181036000830152611b3b816118a2565b9050919050565b60006020820190508181036000830152611b5b81611908565b9050919050565b60006020820190508181036000830152611b7b81611948565b9050919050565b6000606082019050611b976000830184611988565b92915050565b6000602082019050611bb260008301846119d9565b92915050565b6000604082019050611bcd60008301856119d9565b611bda602083018461169d565b9392505050565b60008235600160c003833603038112611bf957600080fd5b80830191505092915050565b60008235600161010003833603038112611c1e57600080fd5b80830191505092915050565b600081519050919050565b600081519050919050565b600082825260208201905092915050565b600081905092915050565b600082825260208201905092915050565b6000611c7882611cc1565b9050919050565b6000611c8a82611cc1565b9050919050565b60008115159050919050565b6000611ca882611c6d565b9050919050565b6000611cba82611c6d565b9050919050565b600073ffffffffffffffffffffffffffffffffffffffff82169050919050565b6000819050919050565b6000611cf682611d21565b9050919050565b6000611d0882611d0f565b9050919050565b6000611d1a82611cc1565b9050919050565b6000611d2c82611d33565b9050919050565b6000611d3e82611cc1565b9050919050565b60005b83811015611d63578082015181840152602081019050611d48565b83811115611d72576000848401525b50505050565b6000601f19601f8301169050919050565b611d9281611c6d565b8114611d9d57600080fd5b50565b611da981611c7f565b8114611db457600080fd5b50565b611dc081611c91565b8114611dcb57600080fd5b50565b611dd781611c9d565b8114611de257600080fd5b50565b611dee81611caf565b8114611df957600080fd5b50565b611e0581611ce1565b8114611e1057600080fd5b5056fea2646970667358221220e7cca7a96f2578960ab43361d3a76774802ab1b22f7e558a918154cb9bb8a45c64736f6c634300060a0033",
  "immutableReferences": {},
  "source": "pragma solidity ^0.6.10;\npragma experimental ABIEncoderV2;\n\n// SPDX-License-Identifier: MIT OR Apache-2.0\n\nimport \"@opengsn/gsn/contracts/forwarder/IForwarder.sol\";\nimport \"@opengsn/gsn/contracts/BasePaymaster.sol\";\n\n\n\ncontract NaivePaymaster is BasePaymaster {\n\taddress public ourTarget;   // The target contract we are willing to pay for\n\n\t// allow the owner to set ourTarget\n\tevent TargetSet(address target);\n\tfunction setTarget(address target) external onlyOwner {\n\t\tourTarget = target;\n\t\temit TargetSet(target);\n\t}\n\n\tevent PreRelayed(uint);\n\tevent PostRelayed(uint);\n\n\n\tfunction preRelayedCall(\n\t\tGsnTypes.RelayRequest calldata relayRequest,\n\t\tbytes calldata signature,\n\t\tbytes calldata approvalData,\n\t\tuint256 maxPossibleGas\n\t) external override virtual\n\treturns (bytes memory context, bool) {\n\t\t_verifyForwarder(relayRequest);\n\t\t(signature, approvalData, maxPossibleGas);\n\t\t\n\t\trequire(relayRequest.request.to == ourTarget);\n\t\temit PreRelayed(now);\n                return (abi.encode(now), false);\n\t}\n\n\tfunction postRelayedCall(\n\t\tbytes calldata context,\n\t\tbool success,\n\t\tuint256 gasUseWithoutPost,\n\t\tGsnTypes.RelayData calldata relayData\n\t) external override virtual {\n                (context, success, gasUseWithoutPost, relayData);\n\t\temit PostRelayed(abi.decode(context, (uint)));\n\t}\n\n  function versionPaymaster() external virtual view override returns (string memory) {\n    return \"2.0.3\";\n  }\n\n}",
  "sourcePath": "/Users/hakeemorewole/projects/1aa/multisend/gasless/contracts/Paymaster.sol",
  "compiler": {
    "name": "solc",
    "version": "0.6.10+commit.00c0fcaf.Emscripten.clang"
  },
  "schemaVersion": "3.2.3",
  "updatedAt": "2021-02-07T21:13:50.621Z",
  "devdoc": {
    "methods": {
      "owner()": {
        "details": "Returns the address of the current owner."
      },
      "renounceOwnership()": {
        "details": "Leaves the contract without owner. It will not be possible to call `onlyOwner` functions anymore. Can only be called by the current owner. NOTE: Renouncing ownership will leave the contract without an owner, thereby removing any functionality that is only available to the owner."
      },
      "transferOwnership(address)": {
        "details": "Transfers ownership of the contract to a new account (`newOwner`). Can only be called by the current owner."
      }
    }
  },
  "userdoc": {
    "methods": {
      "getRelayHubDeposit()": {
        "notice": "check current deposit on relay hub."
      },
      "withdrawRelayHubDepositTo(uint256,address)": {
        "notice": "withdraw deposit from relayHub"
      }
    }
  }
}