{
  "contractName": "OneInchFunction",
  "abi": [
    {
      "inputs": [
        {
          "internalType": "address",
          "name": "_token",
          "type": "address"
        },
        {
          "internalType": "address",
          "name": "_spender",
          "type": "address"
        },
        {
          "internalType": "bytes",
          "name": "approvalData",
          "type": "bytes"
        },
        {
          "internalType": "bytes",
          "name": "_spendData",
          "type": "bytes"
        }
      ],
      "name": "routeToken",
      "outputs": [
        {
          "internalType": "bool",
          "name": "success",
          "type": "bool"
        }
      ],
      "stateMutability": "nonpayable",
      "type": "function"
    },
    {
      "inputs": [
        {
          "internalType": "address",
          "name": "_token",
          "type": "address"
        },
        {
          "internalType": "address",
          "name": "_spender",
          "type": "address"
        },
        {
          "internalType": "bytes",
          "name": "approvalData",
          "type": "bytes"
        },
        {
          "internalType": "bytes",
          "name": "_spendData",
          "type": "bytes"
        }
      ],
      "name": "calcCallData",
      "outputs": [
        {
          "internalType": "bytes",
          "name": "data",
          "type": "bytes"
        }
      ],
      "stateMutability": "pure",
      "type": "function"
    }
  ],
  "bytecode": "0x608060405234801561001057600080fd5b5061060a806100206000396000f3fe608060405234801561001057600080fd5b50600436106100365760003560e01c80633f1dd5821461003b578063be28711314610198575b600080fd5b6101236004803603608081101561005157600080fd5b73ffffffffffffffffffffffffffffffffffffffff823581169260208101359091169181019060608101604082013564010000000081111561009257600080fd5b8201836020820111156100a457600080fd5b803590602001918460018302840111640100000000831117156100c657600080fd5b9193909290916020810190356401000000008111156100e457600080fd5b8201836020820111156100f657600080fd5b8035906020019184600183028401116401000000008311171561011857600080fd5b509092509050610294565b6040805160208082528351818301528351919283929083019185019080838360005b8381101561015d578181015183820152602001610145565b50505050905090810190601f16801561018a5780820380516001836020036101000a031916815260200191505b509250505060405180910390f35b610280600480360360808110156101ae57600080fd5b73ffffffffffffffffffffffffffffffffffffffff82358116926020810135909116918101906060810160408201356401000000008111156101ef57600080fd5b82018360208201111561020157600080fd5b8035906020019184600183028401116401000000008311171561022357600080fd5b91939092909160208101903564010000000081111561024157600080fd5b82018360208201111561025357600080fd5b8035906020019184600183028401116401000000008311171561027557600080fd5b509092509050610404565b604080519115158252519081900360200190f35b6060868686868686604051602401808773ffffffffffffffffffffffffffffffffffffffff1673ffffffffffffffffffffffffffffffffffffffff1681526020018673ffffffffffffffffffffffffffffffffffffffff1673ffffffffffffffffffffffffffffffffffffffff16815260200180602001806020018381038352878782818152602001925080828437600083820152601f017fffffffffffffffffffffffffffffffffffffffffffffffffffffffffffffffe0169091018481038352858152602001905085858082843760008382015260408051601f9092017fffffffffffffffffffffffffffffffffffffffffffffffffffffffffffffffe0908116909401828103909401825292909252506020810180517bffffffffffffffffffffffffffffffffffffffffffffffffffffffff167fbe2871130000000000000000000000000000000000000000000000000000000017905299505050505050505050509695505050505050565b6000808773ffffffffffffffffffffffffffffffffffffffff168686604051808383808284376040519201945060009350909150508083038183865af19150503d8060008114610470576040519150601f19603f3d011682016040523d82523d6000602084013e610475565b606091505b50509050806104e557604080517f08c379a000000000000000000000000000000000000000000000000000000000815260206004820152601360248201527f417070726f76652063616c6c206661696c656400000000000000000000000000604482015290519081900360640190fd5b60008773ffffffffffffffffffffffffffffffffffffffff168585604051808383808284376040519201945060009350909150508083038183865af19150503d8060008114610550576040519150601f19603f3d011682016040523d82523d6000602084013e610555565b606091505b50509050806105c557604080517f08c379a000000000000000000000000000000000000000000000000000000000815260206004820152601060248201527f5370656e642063616c6c206661696c7300000000000000000000000000000000604482015290519081900360640190fd5b5060019897505050505050505056fea2646970667358221220255e038660fc8270c60375c6277d0cb4fa2f3befdc6f73cf47bab993e7b6290f64736f6c634300060a0033",
  "immutableReferences": {},
  "source": "pragma solidity 0.6.10;\n\n// SPDX-License-Identifier: MIT OR Apache-2.0\n\n\n\ncontract OneInchFunction {\n\n    function routeToken(address _token, address _spender, bytes calldata approvalData, bytes calldata _spendData) external returns (bool success){\n       (bool _success1, ) = _token.call(approvalData);\n       require(_success1, \"Approve call failed\");\n       (bool _success, ) = _spender.call(_spendData);\n       require(_success, \"Spend call fails\");\n       return true;\n    }\n    \n    function calcCallData(address _token, address _spender, bytes calldata approvalData, bytes calldata _spendData) pure external returns (bytes memory data){\n        return abi.encodeWithSignature(\"routeToken(address,address,bytes,bytes)\", _token, _spender, approvalData, _spendData);\n    }\n}\n",
  "sourcePath": "/Users/hakeemorewole/projects/1aa/multisend/gasless/contracts/OneInchFunction.sol",
  "compiler": {
    "name": "solc",
    "version": "0.6.10+commit.00c0fcaf.Emscripten.clang"
  },
  "schemaVersion": "3.2.3",
  "updatedAt": "2021-02-16T17:57:17.987Z",
  "devdoc": {
    "methods": {}
  },
  "userdoc": {
    "methods": {}
  }
}