{
  "contractName": "UniswapFunction",
  "abi": [
    {
      "inputs": [
        {
          "internalType": "address",
          "name": "_uniswap",
          "type": "address"
        },
        {
          "internalType": "uint256",
          "name": "amountIn",
          "type": "uint256"
        },
        {
          "internalType": "uint256",
          "name": "amountOutMin",
          "type": "uint256"
        },
        {
          "internalType": "address[]",
          "name": "path",
          "type": "address[]"
        },
        {
          "internalType": "address",
          "name": "to",
          "type": "address"
        },
        {
          "internalType": "uint256",
          "name": "deadline",
          "type": "uint256"
        }
      ],
      "name": "routeToken",
      "outputs": [
        {
          "internalType": "bool",
          "name": "success",
          "type": "bool"
        }
      ],
      "stateMutability": "nonpayable",
      "type": "function"
    },
    {
      "inputs": [
        {
          "internalType": "address",
          "name": "_uniswap",
          "type": "address"
        },
        {
          "internalType": "uint256",
          "name": "amountIn",
          "type": "uint256"
        },
        {
          "internalType": "uint256",
          "name": "amountOutMin",
          "type": "uint256"
        },
        {
          "internalType": "address[]",
          "name": "path",
          "type": "address[]"
        },
        {
          "internalType": "address",
          "name": "to",
          "type": "address"
        },
        {
          "internalType": "uint256",
          "name": "deadline",
          "type": "uint256"
        }
      ],
      "name": "calcCallData",
      "outputs": [
        {
          "internalType": "bytes",
          "name": "data",
          "type": "bytes"
        }
      ],
      "stateMutability": "pure",
      "type": "function",
      "constant": true
    }
  ],
  "bytecode": "0x608060405234801561001057600080fd5b5061071e806100206000396000f3fe608060405234801561001057600080fd5b50600436106100365760003560e01c806346e26c7b1461003b578063aa0c6eac14610104575b600080fd5b6100f0600480360360c081101561005157600080fd5b73ffffffffffffffffffffffffffffffffffffffff823516916020810135916040820135919081019060808101606082013564010000000081111561009557600080fd5b8201836020820111156100a757600080fd5b803590602001918460208302840111640100000000831117156100c957600080fd5b919350915073ffffffffffffffffffffffffffffffffffffffff813516906020013561022e565b604080519115158252519081900360200190f35b6101b9600480360360c081101561011a57600080fd5b73ffffffffffffffffffffffffffffffffffffffff823516916020810135916040820135919081019060808101606082013564010000000081111561015e57600080fd5b82018360208201111561017057600080fd5b8035906020019184602083028401116401000000008311171561019257600080fd5b919350915073ffffffffffffffffffffffffffffffffffffffff81351690602001356105a6565b6040805160208082528351818301528351919283929083019185019080838360005b838110156101f35781810151838201526020016101db565b50505050905090810190601f1680156102205780820380516001836020036101000a031916815260200191505b509250505060405180910390f35b6000808585600081811061023e57fe5b9050602002013573ffffffffffffffffffffffffffffffffffffffff16905060008686600181811061026c57fe5b9050602002013573ffffffffffffffffffffffffffffffffffffffff1690508173ffffffffffffffffffffffffffffffffffffffff1663095ea7b38b8b6040518363ffffffff1660e01b8152600401808373ffffffffffffffffffffffffffffffffffffffff1673ffffffffffffffffffffffffffffffffffffffff16815260200182815260200192505050602060405180830381600087803b15801561031257600080fd5b505af1158015610326573d6000803e3d6000fd5b505050506040513d602081101561033c57600080fd5b5050604080517f095ea7b300000000000000000000000000000000000000000000000000000000815273ffffffffffffffffffffffffffffffffffffffff8c81166004830152602482018c905291519183169163095ea7b3916044808201926020929091908290030181600087803b1580156103b757600080fd5b505af11580156103cb573d6000803e3d6000fd5b505050506040513d60208110156103e157600080fd5b50506040517f18cbafe5000000000000000000000000000000000000000000000000000000008152600481018a8152602482018a905273ffffffffffffffffffffffffffffffffffffffff87811660648401526084830187905260a06044840190815260a484018a90528d93918416926318cbafe5928e928e928e928e928e928e9290919060c401866020870280828437600081840152601f19601f820116905080830192505050975050505050505050600060405180830381600087803b1580156104ac57600080fd5b505af11580156104c0573d6000803e3d6000fd5b505050506040513d6000823e601f3d9081017fffffffffffffffffffffffffffffffffffffffffffffffffffffffffffffffe0168201604052602081101561050757600080fd5b810190808051604051939291908464010000000082111561052757600080fd5b90830190602082018581111561053c57600080fd5b825186602082028301116401000000008211171561055957600080fd5b82525081516020918201928201910280838360005b8381101561058657818101518382015260200161056e565b505050509050016040525050505060019350505050979650505050505050565b606087878787878787604051602401808873ffffffffffffffffffffffffffffffffffffffff1673ffffffffffffffffffffffffffffffffffffffff168152602001878152602001868152602001806020018473ffffffffffffffffffffffffffffffffffffffff1673ffffffffffffffffffffffffffffffffffffffff168152602001838152602001828103825286868281815260200192506020028082843760008382015260408051601f9092017fffffffffffffffffffffffffffffffffffffffffffffffffffffffffffffffe0908116909401828103909401825292909252506020810180517bffffffffffffffffffffffffffffffffffffffffffffffffffffffff167fdaf5509200000000000000000000000000000000000000000000000000000000179052995050505050505050505097965050505050505056fea2646970667358221220191c0bbd702aeb6f6357bf0a3a99da6484ad7ff048e9c5593eb2618d614934ee64736f6c634300060a0033",
  "immutableReferences": {},
  "source": "  \npragma solidity 0.6.10;\n\n// SPDX-License-Identifier: MIT OR Apache-2.0\nimport './IUniswapV2Router02.sol';\nimport \"@openzeppelin/contracts/token/ERC20/IERC20.sol\";\n\n\ncontract UniswapFunction {\n\n    function routeToken(address _uniswap, uint amountIn, uint amountOutMin, address[] calldata path, address to, uint deadline) external returns (bool success){\n       IERC20 token0 = IERC20(path[0]);\n       IERC20 token1 = IERC20(path[1]);\n       token0.approve(_uniswap, amountIn);\n       token1.approve(_uniswap, amountIn);\n       IUniswapV2Router02 uniswapRouter = IUniswapV2Router02(_uniswap);\n       uniswapRouter.swapExactTokensForETH(amountIn, amountOutMin, path, to, deadline);\n       return true;\n    }\n    \n    function calcCallData(address _uniswap, uint amountIn, uint amountOutMin, address[] calldata path, address to, uint deadline) pure external returns (bytes memory data){\n        return abi.encodeWithSignature(\"routeToken(address,uint,uint,address[],address,uint)\", _uniswap, amountIn, amountOutMin, path, to, deadline);\n    }\n}\n",
  "sourcePath": "/Users/hakeemorewole/projects/1aa/multisend/gasless/contracts/UniswapFunction.sol",
  "compiler": {
    "name": "solc",
    "version": "0.6.10+commit.00c0fcaf.Emscripten.clang"
  },
  "schemaVersion": "3.2.3",
  "updatedAt": "2021-03-11T17:16:23.662Z",
  "networkType": "ethereum",
  "devdoc": {
    "methods": {}
  },
  "userdoc": {
    "methods": {}
  }
}